:020000040800F2
:1000000008EB012085020008A1040008150400087F
:100010009D040008CF030008EB0500080000000065
:10002000000000000000000000000000C501000802
:10003000110400080000000021020008CD0400089F
:100040009F0200089F0200089F0200089F0200080C
:100050009F0200089F0200089F0200089F020008FC
:100060009F0200089F0200089F0200089F020008EC
:100070009F0200089F0200089F0200089F020008DC
:100080009F0200089F0200089F0200089F020008CC
:100090009F0200089F0200089F0200089F020008BC
:1000A0009F0200089F0200089F0200089F020008AC
:1000B0009F0200089F0200089F0200089F0200089C
:1000C0009F0200089F0200089F0200089F0200088C
:1000D0009F0200089F0200089F0200089F0200087C
:1000E0009F0200089F0200089F0200089F0200086C
:1000F0009F0200089F0200089F0200089F0200085C
:100100009F0200089F0200089F0200089F0200084B
:100110009F0200089F0200089F0200089F0200083B
:10012000D50300089F0200089F0200089F020008F4
:100130009F0200089F0200089F0200089F0200081B
:100140009F0200089F0200089F0200089F0200080B
:100150009F0200089F0200089F0200089F020008FB
:100160009F0200089F0200089F0200089F020008EB
:100170009F0200089F0200089F0200080000000084
:100180009F0200089F0200089F0200089F020008CB
:100190009F0200089F0200089F0200080000000064
:1001A0009F0200089F0200089F020008DFF810D09D
:1001B00000F0D0F800480047A16B0008AFF30080C2
:1001C00008EB01202C4B19680868B0E8F04F80F369
:1001D0000988BFF36F8F4FF0000080F311887047DC
:1001E0000000000008480068006880F308884FF0AD
:1001F000000080F3148862B661B6BFF34F8FBFF37F
:100200006F8F00DF00BF00BF08ED00E0DFF80C00DB
:10021000016841F470010160704700BF88ED00E0A3
:10022000EFF30980BFF36F8F134B1A681EF0100FA6
:1002300008BF20ED108A20E9F04F106009B44FF09C
:10024000500080F31188BFF34F8FBFF36F8F0EF014
:10025000F7FF4FF0000080F3118809BC19680868A7
:10026000B0E8F04F1EF0100F08BFB0EC108A80F31A
:100270000988BFF36F8F704774000020EFF305808B
:10028000704700000648804706480047FEE7FEE743
:10029000FEE7FEE7FEE7FEE7FEE7FEE7FEE7FEE736
:1002A00001050008AD01000810B5431A934209D2B8
:1002B0008318881803E010F8011D03F8011D521E71
:1002C000F9D210BD40EA01039B0703D009E008C939
:1002D000121F08C0042AFAD203E011F8013B00F80B
:1002E000013B521EF9D210BDD2B201E000F8012B41
:1002F000491EFBD270470022F6E710B513460A46A6
:1003000004461946FFF7F0FF204610BD30B50446FD
:100310000020034600E05B1C934203D2E05CCD5C0E
:10032000401BF8D030BD30B50B46014600202022DE
:10033000012409E021FA02F59D4205D303FA02F5F2
:10034000491B04FA02F52844151EA2F10102F1DC52
:1003500030BD0000064C074D06E0E06840F00103A8
:1003600094E8070098471034AC42F6D3FFF722FF19
:10037000C0050108E005010870B58C1810F8015B94
:1003800015F0070301D110F8013B2A1106D110F82E
:10039000012B03E010F8016B01F8016B5B1EF9D132
:1003A0002B0705D40023521E0DD401F8013BFAE7B8
:1003B00010F8013BCB1A921C03E013F8015B01F823
:1003C000015B521EF9D5A142D8D3002070BD00BFF9
:1003D000FEE7000010B5202200210B4801F066FF67
:1003E00080B120220021084801F041FF0121074887
:1003F00003F056FEC0F10100C4B2224601210348B9
:1004000003F049FE10BD00000064024000080240F5
:1004100000BFFEE700BFFEE709E005A000F0E8F836
:100420000121074803F033FE0A200EF019FDF4E71E
:100430007461736B312072756E6E696E670D0A00A0
:100440000008024009E005A000F0D2F801210748A9
:1004500003F01FFE0A200EF003FDF4E77461736BD6
:10046000322072756E6E696E670D0A0000080240D8
:1004700009E005A000F0BCF80121074803F009FEDF
:100480000A200EF0EDFCF4E77461736B3320727593
:100490006E6E696E670D0A000008024000BFFEE73D
:1004A00000BFFEE710B5002807DA0A07140E054A58
:1004B00000F00F031B1FD45403E00A07130E024A77
:1004C000135410BD18ED00E000E400E010B500BFCB
:1004D000502080F31188BFF34F8FBFF36F8F00BFA1
:1004E0000FF032FB18B14FF080500449086000BF94
:1004F000002080F3118800BF10BD000004ED00E073
:1005000008B53048006840F470002E4908602E4855
:10051000006840F001002C49086000BF2A480068CC
:1005200000F002000028F9D000BF2748083000681A
:1005300040F080002449083108600020009002E06B
:100540000098401C009000985028F9D31E480830AD
:10055000006840F090001C490831086000200090BD
:1005600002E00098401C009000985028F9D300BF8A
:1005700015480830006820F003001349083108606E
:1005800011480068114908400F4908600846006892
:1005900020F48020086000200B490831086000BF6B
:1005A00009480830006800200028F9D108480649A9
:1005B000091D0860002004490C31086009F060FC46
:1005C00008BD000088ED00E000380240FFFFF6FEA5
:1005D0001030002410B5012188070DF012FD18B16C
:1005E000012188070DF00AFD10BD00BFFEE70000E5
:1005F0000FB4054B10B503A9044A029800F018F88F
:1006000010BC5DF814FB0000413E0008B80100205A
:1006100002E008C8121F08C1002AFAD170477047CB
:10062000002001E001C1121F002AFBD17047000029
:100630002DE9FF4F8BB088460546002606E02528A9
:100640000BD0DDE90D1290476D1C761C2878002830
:10065000F5D10FB03046BDE8F08F0024A146A24688
:100660000122AE4900E0044315F8013F203B02FAA5
:1006700003F00842F7D128782A2810D06FF02F0213
:100680002878A0F13001092915D809EB890102EB7E
:10069000410144F0020400EB01096D1CF0E758F839
:1006A000041B5FEA010903D544F40054C9F10009B1
:1006B00044F002046D1C28782E2817D115F8010F7C
:1006C00044F004042A280ED06FF02F022878A0F1FD
:1006D000300109290AD80AEB8A0102EB410100EB3B
:1006E000010A6D1CF2E758F804AB6D1C28786C28E1
:1006F0000FD006DC4C2817D068280DD06A2814D1FA
:1007000004E0742810D07A280FD10DE044F40014CE
:100710000AE044F4801401E044F440146978814212
:1007200002D104F580146D1C6D1C2878692865D0F1
:1007300006DC00288DD0632827D0642806D15DE030
:100740006E2808D073282AD0752877D0DDE90D12DD
:100750009047761CE0E0C4F30250022809D0032839
:100760000DD0D8F8001004280DD00E6008F1040850
:10077000D2E0D8F80010F217C1E90062F6E7D8F825
:1007800000100E80F2E70E70F0E718F8041B8DF8E9
:10079000001000208DF80100EB46012003E058F81E
:1007A00004BB4FF0FF3061074FF0000701D40AE0AF
:1007B0007F1C57450DDA8742FADB1BF8071000292A
:1007C000F6D106E07F1C8742FCDB1BF807100029EE
:1007D000F8D1DDE90D23A9EB07008146214600F0A1
:1007E000B1F83044C61904E0DDE90D121BF8010B25
:1007F00090477F1EF8D22146484688E058F8040BFF
:10080000C4F302514FF00A0B032900D100B20429AE
:1008100000D140B2002802DA40422D2102E0210539
:1008200005D52B218DF82410012104E006E0E10715
:1008300010D02021F6E708AF089113E058F8040B18
:10084000C4F302514FF00A0B032900D180B20429EE
:1008500000D1C0B20021EEE75946FFF764FD303108
:1008600007F8011D0028F7D1ADEB070000F1200BC0
:10087000600702D524F4803401E04FF0010ADA4524
:1008800002DDAAEB0B0000E00020824600EB0B012A
:1008900008980144A9EB01000A90E00306D4DDE9C1
:1008A0000D2321460A9800F04DF806444FF0000948
:1008B00008E009A911F80900DDE90D12904709F1D6
:1008C0000109761C08998945F3DBE0030CD5DDE9C5
:1008D0000D2321460A9800F035F8064404E0DDE9CE
:1008E0000D1230209047761CBAF10001AAF1010ADE
:1008F000F5DC05E0DDE90D1217F8010B9047761CD9
:10090000BBF10001ABF1010BF4DC0A982146DDE9F3
:100910000D2300F005F806446D1C97E60928010038
:100920002DE9F041044600251E461746880404D4EC
:1009300005E039462020B0476D1C641EF9D52846D5
:10094000BDE8F0812DE9F041044600251E469046A1
:10095000C80301D5302700E02027880404D505E02E
:1009600041463846B0476D1C641EF9D52846BDE89F
:10097000F0812DE9F04706460F46914634461CB9F2
:100980006FF00500BDE8F08704F1140008B160695C
:1009900020B900BF00BF6FF00500F3E7A7B96FF003
:1009A0000C0005F0BFFC8046414604F1140009F03C
:1009B000CCF830B9A06A20B1002211462046A36AC3
:1009C00098476FF00500DDE700BF00BF00BF00BF24
:1009D0002078A16A06F041FC0546A5B96FF00C002D
:1009E00005F0A0FC8046414604F1140009F0ADF882
:1009F00030B9A06A20B1002211462046A36A984768
:100A00004FF0FF30BEE76F60284608F06BFF2946C5
:100A100004F1140009F099F820B3D5F804800021FE
:100A2000404609F059FB002140460BF00DFF002124
:100A300040460CF030F90022114640460BF09CF87D
:100A40000021404609F0E1FE0020686005F1100039
:100A500009F04DF800202861284606F033FD4FF0DC
:100A6000FF308FE7A06A20B1002211462046A36A1A
:100A70009847002086E7816841F00801816000BF47
:100A8000816801F008010029FAD1816841F0040170
:100A9000816000BF816801F004010029FAD170472C
:100AA00030B5012902D0022920D10FE06AB1102A05
:100AB0000BD8C36A23F47003C362C36A541E4FF495
:100AC000700505EA04542343C36210E06AB1042AA6
:100AD0000BD8836B23F440138363836B541E4FF452
:100AE000401505EA04542343836300E000BF00BFC0
:100AF00030BD00000649096821F4E021054AC2F82A
:100B000004131146D1F804130143C2F804137047CB
:100B1000042301400020014021B1826842F40062B8
:100B2000826003E0826822F400628260704781681C
:100B300041F4807181607047816841F40071816087
:100B40007047816801F0010119B9816841F0010124
:100B500081607047012902D0022912D108E0836820
:100B600023F040538360836843EA0273836009E0A3
:100B7000836823F440138360836843EA02538360ED
:100B800000E000BF00BF7047012902D0022910D148
:100B900007E0836823F07063836083681343836096
:100BA00008E0836823F470238360836813438360C1
:100BB00000E000BF00BF7047426822F04072426010
:100BC00042680A4342607047F0B51D4606290CDAB8
:100BD000436B01EB81071F26BE40B34301EB810647
:100BE00002FA06F63343436322E00C290EDA036B64
:100BF0008E1F06EB86071F26BE40B3438E1F06EBF3
:100C0000860602FA06F63343036311E010290FDA71
:100C1000C36AA1F10C0606EB86071F26BE40B3434C
:100C2000A1F10C0606EB860602FA06F63343C36210
:100C30000A2A0CDA046902EB42070726BE40B443D5
:100C400002EB420605FA06F63443046111E0122A6B
:100C50000FDCC468A2F10A0606EB46070726BE4071
:100C6000B443A2F10A0606EB460605FA06F634433B
:100C7000C460F0BD012902D002290AD104E08268D3
:100C800042F08042826005E0826842F48002826025
:100C900000E000BF00BF7047AAB101F480731BB130
:100CA000436843F48073436001F480631BB143687D
:100CB00043F48063436001F00203CBB1836843F0E7
:100CC0000203836014E001F480731BB1436823F4D2
:100CD0008073436001F480631BB1436823F4806335
:100CE000436001F002031BB1836823F002038360B9
:100CF000704700002DE9F04105460E46002434E01F
:100D000008F09DFE07461B4800EB0410006840BB3E
:100D1000184800EB04100560384608F0B8FE0020C3
:100D2000144901EB0411486000BF00BF114901EBF9
:100D300004110881287800F0F000102804D10EB1C9
:100D4000012002E0002000E001200A4901EB04112B
:100D500048810020074901EB041188812046BDE845
:100D6000F081384608F093FE641C042CC8DB4FF079
:100D7000FF30F4E70892002070B505460E4600BF2C
:100D800005B970BD00BF6C6A00BF00BF6CB160796F
:100D900008280AD100BF00BF3068E169884204D149
:100DA00000BF00BF284600F091F900BFE9E77CB51D
:100DB000064600BF06B97CBD00BF746A00BF04B917
:100DC000F9E700BF00BF00BF00206082A06A401C9E
:100DD00090B100BF00BFA06A1E303C21B0FBF1F50E
:100DE000B5F5803F01D34FF6FF75A582A08A08B9FB
:100DF0000120A08200BF00BFE06A401CA0B100BF7C
:100E000000BFE06A1E303C21B0FBF1F5B5F5803F34
:100E100001D34FF6FF756581608908B901206081B3
:100E200000BF00BF6089E081206B401CA0B100BF03
:100E300000BF206B1E303C21B0FBF1F5B5F5803FC3
:100E400001D34FF6FF75A581A08908B90120A081C3
:100E500000BF00BFA08920826089A189884204DB8D
:100E6000A089002801DD00206081E07910B1206AAE
:100E700001900FE0207F7F2802DCFF21019108E034
:100E8000C02803DB6FF07F41019102E04FF6FF7154
:100E9000019100BF606A0090009848B900BFE06906
:100EA00001990840009000BF009840F080700090C9
:100EB00000BF00BF0A21204601F02AF86B4601AAB4
:100EC00004F11C01304606F0A7FE00BF73E72DE9D0
:100ED000F0410646746A00BF00BF0821204601F0B9
:100EE00017F8002204F11C01304602F045FC0546CB
:100EF0000DB100BF00BFA079FF2802DAA079401C25
:100F0000A0714FF4FA7707F2F310394690FBF1F035
:100F1000208100BF00BFBDE8F081000070B500BFB8
:100F200000BF1B4805682FE06C6AFCB16079E8B12E
:100F3000A08A78B1608A401C80B26082A18A88420F
:100F400008D100BF00BF284600F036FE284600F05A
:100F5000E7FF18E0208A50B1218A481E208201292B
:100F600005D100BF00BF284601F06DF80BE0E08915
:100F700048B1E189481EE081012904D100BF00BFCA
:100F8000284601F03BF82D68002DCDD170BD000042
:100F9000440100202DE9F05F07460D4616469A46AB
:100FA00000BF17B90020BDE8F09F00BF00BF0DB91A
:100FB0000020F8E700BF4FF420724FF49A713620FA
:100FC00006F048FF8146B9F1000F03D100BF00BF12
:100FD0000020E8E700BF00BF032E02D16879032894
:100FE00009D1A87920B92B480068401C294908601C
:100FF00028480068286000BF00BFD9F804404FF4BB
:101000009A712046FFF777F901202070607097F8F9
:101010003000A070286804F027FC6060082E0BD018
:10102000042E09D0072E07D0032E07D16879052892
:1010300002D06879042801D17868E0604FF0000898
:101040000BE007F12A0010F8081004F11C0000F86A
:10105000081008F101001FFA80F8B8F1060FF0D36C
:101060000D48C4F8EC000123352204F1F001002002
:1010700000F0EAF98346324604F1F001584600F0E8
:10108000EFF98346BAF1000F01D0AAF800B0484644
:1010900089E70000F00000206382536310B500BFB1
:1010A00000BF08480078401E0649087008460078CE
:1010B00030B9054800680DF055FA00200249086073
:1010C00010BD0000EC000020E80000202DE9FE4FDC
:1010D0000646746A00BF00BF0C21204600F018FFCE
:1010E00002AB042221463046FFF754FF054675B394
:1010F000D5F804800423322208F1F001BDF808007D
:1011000000F0A2F90290E06904F0AEFB824652467C
:1011100008F1F001BDF8080000F0AAF902902A4693
:1011200008F1F001BDF8080000F0C8F914484323A5
:10113000144A2946CDE90060134800680DF0C5FA4D
:101140000746284607F053F800BF00BF04E0FFE75A
:1011500000BF00BF4FF0FF37A079FF2802DAA07967
:10116000401CA07142F2107909F2F3104FF4FA71A9
:1011700090FBF1F0208100BF00BF3846BDE8FE8F34
:101180007002010874020108E80000202DE9FE4FFA
:1011900007467C6A4FF0000A00BF00BF0020E061F4
:1011A0000621204600F0B4FE02AB0122214638465B
:1011B000FFF7F0FE0546002D4AD06E6800BF00BF65
:1011C0000223392206F1F001BDF8080000F03CF9D5
:1011D00002903A8D06F1F001BDF8080000F061F9C7
:1011E00002900323372206F1F001BDF8080000F059
:1011F0002BF90290D0460DE0274810F8082006F1A0
:10120000F001BDF8080000F02BF9029008F1010090
:1012100000F0FF08B8F1030FEED32A4606F1F00103
:10122000BDF8080000F04AF900BF00BF1B48432387
:101230001B4A2946CDE900701A4800680DF045FAAE
:1012400000BF00BF284606F0D2FF00BF00BF01E08C
:1012500000BF00BFA079FF2802DAA079401CA0716E
:10126000A079062803DAA1790120884000E03C201B
:1012700000EB4001C1EBC0104FF6FF7101EAC0095D
:1012800009F2F3104FF4FA7190FBF1F0208100BFE6
:1012900000BF5046BDE8FE8FE40000207002010848
:1012A00074020108E800002070B50D48056814E0DC
:1012B0006C6A8CB12089012803DD2089401E2081C1
:1012C0000AE02089012807D12089401E208100BF23
:1012D00000BF284600F0DFFE2D68002DE8D170BD6C
:1012E0004401002070B505460E466C6A002020625D
:1012F00060621A48C07810B11948C068A0621748E7
:10130000007918B116480069E06202E0A06A40085E
:10131000E0621248407918B111484069206304E046
:10132000A06AC0EBC000C00820633069E0610B48D0
:10133000807938B10A49886904F096FA2062012060
:10134000E07101E00020E0710448C07920B1044957
:10135000C86904F089FA606270BD0000DC000020FA
:101360004892002070B50446656A00BF00BF0C219A
:10137000284600F0CDFD054B1A461146204606F0E2
:101380004BFC2046FFF702FF70BD00007002010811
:1013900070B505460E466C6A00BF00BF0B488078EA
:1013A00080B1002020810A49886804F05DFAA061BC
:1013B00000BF00BF3069E06100BF00BF284600F0F9
:1013C000E7FC01E000BF00BF70BD0000DC000020B2
:1013D0004892002010B51848007828BB00BF00BF15
:1013E0000DF076F8154908600846006810B94FF00E
:1013F000FF3010BD11480068407A40F020000F49CE
:101400000968487244220E490C4800680CF07CFEC2
:1014100043220B49094800680CF0D6FE0022094916
:10142000064800680DF096F803480078401C024911
:1014300008700020DDE70000EC000020E80000203C
:10144000700201085D1A000830B500BF00BF0446F5
:10145000451CA8B20A550446451CA8B20B5530BD20
:1014600010B500BF00BF0346441CA0B2CA5410BD53
:1014700030B500BF00BF150E0346441CA0B2CD54CA
:10148000C2F307450346441CA0B2CD54C2F307255E
:101490000346441CA0B2CD540346441CA0B2CA5417
:1014A00030BD30B500BF00BF150A0346441CA0B2D2
:1014B000CD540346441CA0B2CA5430BD70B5044696
:1014C0000D461646FF222046611C8CB22A5404E0C9
:1014D00000222046611C8CB22A54442C02D304F012
:1014E000030008B1442CF3D304F1F00081B230467C
:1014F00006F019FF70BD00002DE9F04F8BB081465A
:10150000002007900690C848002101604160B9F8AA
:101510000A002C2803D2881E0BB0BDE8F08FD9F842
:10152000040005904FF0F00AB9F80800089000BFD9
:101530004C460AE06089AAEB00001FFA80FA618934
:101540000898401A80B20890246814B16089504508
:10155000F0DD14B96FF00100DEE7554608980990F8
:1015600060680A9024E10A98405D049000274FF0DB
:10157000FF38A81C1FFA80FBAB4501DAB81ECBE789
:101580006189681C814203DD691C0A98465C07E09A
:10159000206818B120684068007800E00020064606
:1015A00037460498342834D007DC78B1012811D0AC
:1015B000032819D0332866D121E035283BD03628BE
:1015C00043D03A284BD03B285DD152E0002006465C
:1015D00007465EE000BF042E02D06FF005009BE7D7
:1015E00000BF4FF0060854E0042700BFBE4202DAF5
:1015F0006FF0050090E700BF4FF0070849E000BF1B
:10160000042E02D06FF0050086E700BF4FF00308FC
:101610003FE000BF012E02D06FF005007CE700BF65
:1016200000BFBAF1F00F02D06FF0050074E700BF01
:101630004FF000082DE000BF012E02D06FF0050032
:101640006AE700BF4FF0010823E000BF042E02D07C
:101650006FF0050060E700BF4FF0020819E000BF1F
:10166000042E02D06FF0050056E700BF4FF00408CB
:101670000FE000BF042E02D06FF005004CE700BF62
:101680004FF0050805E0002700BF00BF00BF00BF06
:1016900000BF00BF049810B9681C85B26CE0A8199F
:1016A000801CB0F5803F02DB6FF0010034E7A81921
:1016B000801C85B2002F5FDD0020039000BF00BFBB
:1016C00000BF594810F80800B0BB042F01DA3846B3
:1016D00000E0042002905B4603A92046029A06F02F
:1016E00046FD01460298814202D06FF0010013E7E7
:1016F000042F27DD00BFF91707EB91718910A7EBC5
:10170000810111B16FF0050006E700BF01204649D5
:1017100001F80800039804F0A7F8444941F82800AC
:10172000381FC7B20BF1040080B2019001985845F0
:1017300003DA6FF00100EFE61DE0DDF804B008F118
:101740000108BCE7042F04D1039804F08DF803903E
:1017500009E000BF012F02D06FF00500DCE600BFFA
:101760009DF80C00039001202F4901F808002F4933
:10177000039841F8280000BF6089A84217DC6089FF
:10178000281A85B261890998401A80B2099009988F
:10179000854209DA246800BF14B96FF00500BBE682
:1017A00000BF60680A9002E06FF00100B4E600BF7D
:1017B0003CB10998854204DA0A98405DFF287FF41D
:1017C000D2AE19480078D0B1184908680021164AED
:1017D0001170012803D10121079100BF0EE00228FA
:1017E00003D10121069100BF08E0032804D10121A3
:1017F0000691079100BF01E000BF00BF00BF07983E
:1018000030B1002007904FF06C0AEC2008908FE672
:10181000069830B1002006904FF02C0A6C200890FA
:1018200086E6002078E60000DC00002048920020D8
:101830002DE9FC4707467C6A00BF00BF0421204613
:1018400000F066FB01AB032221463846FFF7A2FBFE
:101850000546002D44D06E680223392206F1F001BE
:10186000BDF80400FFF7F0FD01903A8D06F1F0019C
:10187000BDF80400FFF715FE01900323372206F19F
:10188000F001BDF80400FFF7DFFD01904FF0000804
:101890000DE0254810F8082006F1F001BDF804001D
:1018A000FFF7DEFD019008F1010000F0FF08B8F13C
:1018B000030FEED32A4606F1F001BDF80400FFF74E
:1018C000FDFD4323194A29461948009700680CF08A
:1018D000BFFE8146284606F08AFC00BF00BF03E039
:1018E00000BF00BF4FF0FF39A079FF2802DAA079CE
:1018F000401CA071A0790A2805DAA0794FF47A710A
:1019000010FB01F001E042F210701FFA80FA0AF2B7
:10191000F3104FF4FA7190FBF1F0208100BF00BF8B
:101920004846BDE8FC870000E4000020740201087E
:10193000E80000202DE9FC5F8046D8F8244000BF75
:1019400000BF0321204600F0E3FA01AB0322214649
:101950004046FFF71FFB0646002E56D0756802234F
:10196000392205F1F001BDF80400FFF76DFD01908B
:101970004FF4107205F1F001BDF80400FFF791FD7E
:1019800001900423322205F1F001BDF80400FFF7B5
:101990005BFD0190E06903F067FF83465A4605F15D
:1019A000F001BDF80400FFF763FD01900323372227
:1019B00005F1F001BDF80400FFF746FD0190002796
:1019C0000AE02348C25D05F1F001BDF80400FFF70D
:1019D00047FD0190781CC7B2032FF2D3324605F1C0
:1019E000F001BDF80400FFF769FD4323194A3146B1
:1019F0001948CDF8008000680CF02AFE8146304678
:101A000006F0F5FB00BF00BF03E000BF00BF4FF0D2
:101A1000FF39A079FF2802DAA079401CA071A079D3
:101A20000A2805DAA0794FF47A7110FB01F001E081
:101A300042F210701FFA80FA0AF2F3104FF4FA71B2
:101A400090FBF1F0208100BF00BF4846BDE8FC9F3D
:101A5000E400002074020108E80000202DE9F05F96
:101A60001646DDF828B0514847687C6AD6F80490DD
:101A70000CB1207900B994E000BF00BF00BF00BFE7
:101A800000BF00BF00BF00BF70892C2802DA00BF72
:101A900000BF86E099F80000022802D000BF00BF16
:101AA0007FE000250CE007F12A00415D09F11C00F0
:101AB000405D814202D000BF00BF72E0681CC5B229
:101AC00097F83000A84201DD062DECD3D9F80400C8
:101AD00003F0CAFE2168884202D000BF00BF60E068
:101AE00021463046FFF708FD10B100BF00BF58E0A7
:101AF00000BF00BF2E48407810B900BF00BF50E0C3
:101B0000D6F804A02B4890F80480B8F1050F26D130
:101B100000BF00BF6079012810D151463846FFF759
:101B2000E1FB97F8310000F0080018B13846FFF7E4
:101B3000CEF935E03846FFF73AF931E0607903280D
:101B400005D06079042802D06079052828D1514653
:101B50003846FFF7C7FB3846FFF729F920E0B8F110
:101B6000060F11D16079032808D06079012805D0CB
:101B70006079042802D06079052805D100BF00BF34
:101B80003846FFF7EFFB0BE0B8F1020F08D16079A0
:101B9000062805D100BF00BF51463846FFF7F8FBC5
:101BA00000BF304606F023FBBDE8F09F58930020AD
:101BB000DC000020489200202DE9FE430646746AAE
:101BC00000BF00BF0CB9BDE8FE83607900B9FAE739
:101BD000A06902900020A061E06120626062206341
:101BE000E062A062A08260822082E081304600F044
:101BF000F1F990B301AB072221463046FFF7CAF94D
:101C000005465DB36F680423362207F1F001BDF885
:101C10000400FFF719FC0190029803F025FE8046AE
:101C2000424607F1F001BDF80400FFF721FC0190E6
:101C30002A4607F1F001BDF80400FFF73FFC4323FB
:101C400002AA29461048009600680CF001FD2846BB
:101C500006F0CDFA00BF00BF03E003E0FFE700BFDE
:101C600000BF00BF094B1A461146304605F0D4FFAD
:101C70000021204600F04CF9207918B1FFF70EFA48
:101C80000020207100BF9EE7E800002070020108DC
:101C90002DE9FC4707467C6A00BF00BF05212046AE
:101CA00000F036F901AB032221463846FFF772F9FE
:101CB0000546002D45D06E680223392206F1F00159
:101CC000BDF80400FFF7C0FB01903A8D06F1F0016A
:101CD000BDF80400FFF7E5FB01900323372206F16E
:101CE000F001BDF80400FFF7AFFB01904FF00008D2
:101CF0000DE0254810F8082006F1F001BDF80400B9
:101D0000FFF7AEFB019008F1010000F0FF08B8F109
:101D1000030FEED32A4606F1F001BDF80400FFF7E9
:101D2000CDFB432304F118022946184800970068A8
:101D30000CF08EFC8146284606F059FA00BF00BF21
:101D400003E000BF00BF4FF0FF39A079FF2802DA9F
:101D5000A079401CA071A0790A2805DAA0794FF477
:101D6000FA6110FB01F001E044F620601FFA80FAEE
:101D70000AF2F3104FF4FA7190FBF1F0208100BFEA
:101D800000BF4846BDE8FC87E4000020E8000020D2
:101D90002DE9FE4F074600BF1FB96FF00F00BDE8E9
:101DA000FE8F00BF7C6A00BF14B96FF00500F6E734
:101DB00000BF00BF00BF0121204600F0A9F802AB20
:101DC000032221463846FFF7E5F80646002E71D07B
:101DD00075680223392205F1F001BDF80800FFF70C
:101DE00033FB02903A8D05F1F001BDF80800FFF7D2
:101DF00058FB02900423322205F1F001BDF80800DF
:101E0000FFF722FB0290E06903F02EFD83465A465D
:101E100005F1F001BDF80800FFF72AFB029004234A
:101E2000362205F1F001BDF80800FFF70DFB029026
:101E3000A06903F019FD83465A4605F1F001BDF88B
:101E40000800FFF715FB02900323372205F1F0018C
:101E5000BDF80800FFF7F8FA02904FF000080DE017
:101E6000274810F8082005F1F001BDF80800FFF739
:101E7000F7FA029008F1010000F0FF08B8F1030F33
:101E8000EED3324605F1F001BDF80800FFF716FB6E
:101E90001C4843231C4A3146CDE900701B480068AA
:101EA0000CF013FC8146304606F0A1F900BF00BFDC
:101EB00004E0FFE700BF00BF4FF0FF39A079FF2823
:101EC00002DAA079401CA071A079062803DAA17972
:101ED0000120884000E03C2000EB4001C1EBC01035
:101EE0004FF6FF7101EAC00A0AF2F3104FF4FA71DB
:101EF00090FBF1F0208100BF00BF48464FE7000093
:101F0000E40000207002010874020108E8000020CB
:101F100042798A4203D04171002282710281704766
:101F200070B5044600BF14B96FF00F0070BD00BF5C
:101F300000BF94F8310000F0010010B96FF00F00FD
:101F4000F4E700BF656A00BF00BF208DB0F5107FC9
:101F500004DA00BF00BF4FF0FF30E7E775B900BFFC
:101F600000BF342004F052FF054625B900BF00BF72
:101F70004FF0FF30DAE7656200BF05E000BF00BF49
:101F8000287908B1FFF78AF834212846FEF7B3F91B
:101F900000BF00BFFFF71EFA10B14FF0FF30C5E7DA
:101FA0000120287194F83100C0F3800028B9022183
:101FB0002846FFF7ADFF0020B8E72046FFF7E6F818
:101FC00006462EB12046FFF7F7FD4FF0FF30ADE794
:101FD0003046ABE7014679B1486A68B14A6A507940
:101FE0000A2805D05079052802D05079042801D15B
:101FF000012070470020FCE70020FAE770B5054695
:102000006C6A00BF00BF6079012805D060790A289A
:1020100002D06079052815D100BF00BF2846FFF720
:1020200037FEA189628A881A00EBD0710122B2EBD7
:10203000610F07DCA189628A881A00EBD071C1F3B5
:102040004F01E18170BD70B505466C6A00BF00BFED
:102050006079012808D060790A2805D060790528C0
:1020600002D06079042815D100BF00BF2846FFF7D1
:10207000DFFBA18A628A881A00EBD0710122B2EBE1
:10208000610F07DCA18A628A881A00EBD071C1F364
:102090004F01218270BD70B505466C6A00BF00BF5C
:1020A00060790C2802D06079062805D100BF00BFF6
:1020B0002846FFF76BF831E06079012811D100BFA5
:1020C00000BFA079052803DC2846FFF761FE25E064
:1020D00000BF00BF2846FFF76FFD2846FFF720FF2F
:1020E0001CE0607908280CD100BF00BFA07901284E
:1020F00003DC2846FEF7EBFE10E02846FEF757FE0D
:102100000CE06079032809D1A079022803DA284677
:10211000FFF710FC02E02846FFF738F870BD10B555
:1021200001EB4102D30000F11002D25842F001034A
:1021300001EB4102D40000F11002135110BD30B583
:10214000134601EB4104E50000F11004625922F04E
:10215000606242EA436201EB4104E50000F11004D1
:10216000625130BD00B589B00021144800F02CF850
:102170001348009001200190124802900120039022
:10218000C0020490002005900690012007904004B2
:1021900008906A460021094800F0CEF8102200217C
:1021A000064800F0A9F8002211460448FFF7C7FFCF
:1021B00000210248FFF7B3FF09B000BD00640240F0
:1021C0004C2001400000002010B501EB4102D3007B
:1021D00000F11002D25822F0010301EB4102D400B9
:1021E00000F110021351002301EB4102D40000F171
:1021F0001002135101EB4102D40000F114021351FB
:1022000001EB4102D40000F11802135101EB41022D
:10221000D40000F11C02135101EB4102D40000F183
:1022200020021351212301EB4102D40000F12402CA
:10223000135104290CDA01EB41025300C1F34002AF
:1022400003EB82033D229A4083681A4382600DE0CB
:102250000A1FD1B201EB41025300C1F3400203EB6C
:1022600082033D229A40C3681A43C26010BD10B574
:1022700004290CDA01EB41035C00C1F3400304EBD9
:10228000830302FA03F38468234383600DE00B1F8A
:10229000D9B201EB41035C00C1F3400304EB8303BB
:1022A00002FA03F3C4682343C36010BD10B50346AC
:1022B00004290FDA01EB41004400C1F3400004EBB4
:1022C000800402FA04F01C68204008B1012010BD0F
:1022D0000020FCE7081FC1B201EB41004400C1F33C
:1022E000400004EB800402FA04F05C68204008B16E
:1022F0000120ECE70020EAE730B5802A0DD001EBA1
:102300004103DC0000F110031B59134301EB4104AE
:10231000E50000F1100463510CE001EB4103DC0027
:1023200000F124031B59134301EB4104E50000F1C4
:102330002404635130BD000070B501EB4104E50099
:1023400000F12404645924F0040501EB4104E60083
:1023500000F12404A55101EB4104E60000F118044A
:102360001568A55101EB4104E60000F11C049568D5
:10237000A55101EB4104E60000F11404D569A55113
:1023800001EB4104E50000F1100463593F4C234088
:10239000146944EA8404156A2C4395692C43234349
:1023A00001EB4104E50000F110046351546874B975
:1023B00001EB4104E50000F11004645944F4007598
:1023C00001EB4104E60000F11004A5511FE0546840
:1023D000012C0ED101EB4104E50000F11004645919
:1023E00024F4007501EB4104E60000F11004A5514E
:1023F0000DE001EB4104E50000F11004645944F4E0
:10240000004501EB4104E60000F11004A551D46839
:1024100074B901EB4104E50000F11004645944F47F
:10242000806501EB4104E60000F11004A5510DE0C8
:1024300001EB4104E50000F11004645924F48065C7
:1024400001EB4104E60000F11004A551546974B990
:1024500001EB4104E50000F11004645944F4807577
:1024600001EB4104E60000F11004A5510DE001EB81
:102470004104E50000F11004645924F4807501EB77
:102480004104E60000F11004A55170BD3F87FCFF38
:102490002DE9F04104460E4600BF00BF354607F067
:1024A000CEFA0746E06800682860E06805603846B4
:1024B00007F0EDFABDE8F08170B5044607F0BFFA09
:1024C0000646E06805684DB12868E168086000BF0D
:1024D00000BF304607F0DBFA284670BD304607F0F3
:1024E000D6FA00BF00BF0020F7E7000010B50022B9
:1024F0000621382005F0F8FB0349C8B20122062165
:1025000005F0F2FB10BD0000D505000800201C49B5
:1025100008681C49084000BF194908600021184A92
:1025200051609160D160114688694FF64171084051
:1025300040F08000114688610021D1611146C96BCD
:1025400041F40271D16310490968104A11430C4AE1
:10255000C2F80C111146D1F8101141F40311C2F860
:1025600010110B4988690B49084040F00870084970
:1025700088610868084908400848054908607047AC
:10258000008002400F8130FD0C810240600002009B
:1025900000900240233FDEF87D0000F80060C10299
:1025A00010B540F2194007F01DF840F2194007F04D
:1025B00007F800F031FC10BD08B500210091009033
:1025C00002E00099491E009100990029F9D108BD47
:1025D00008B500210091009002E00099491E009189
:1025E00000990029F9D108BD02464FF0FF300629B5
:1025F00027D2DFE801F022200B03071E9388C3F3E4
:102600000C001FE05368C3F30C401BE01368C3F3D6
:102610000D4004280BD9001F0B4B1B6803F00073FF
:1026200033B1137803F0200313B1001D00E0002044
:1026300008E0906806E0906804E01378C3F3C300F4
:1026400000E000BF00BF7047008002402DE9F0436A
:10265000044600210025002600278C46B4F5E00F33
:102660000FD12348234B052540F2F4564FF4801731
:10267000DFF88480C8F81000DFF88080C8F8000018
:102680000FE01F481F4B052540F2F456EF0744F2B8
:10269000F45CDFF86480C8F80C00DFF86C80C8F8E0
:1026A00000004FF00008DFF86490C9F80080DFF800
:1026B0006090C9F80080002115E000EB011217605E
:1026C000C2F804C001FB0638C2F80880A5F1010871
:1026D000884506D900EB011808F11008C2F80C80F3
:1026E00000E0D060491CA942E7D3BDE8F0830000B8
:1026F0000C02002020200020009002402400002036
:10270000BC0100205C0200202800002030000020D6
:102710002C0000202DE9F74F82B081468A46002424
:10272000002500260027A046002001908346009047
:1027300000F0E4FB48B9C548FFF74AFF00F0DEFBB4
:1027400018B9009805B0BDE8F08FFFF7DFFE4F46DF
:10275000012F5CD100BF01AB01221146002000F027
:1027600039FCBDF8040000F00400019008F10108F4
:10277000BDF8040010B9B6488045ECD3B448804594
:1027800001D10098DEE74FF000084FF4805001902F
:1027900001AB00220121022000F01CFC8346BBF1AA
:1027A000000F01D10098CDE700BF01AB0122114617
:1027B000002000F00FFCBDF8040000F020000190A4
:1027C00008F10108BDF8040010B9A1488045ECD318
:1027D0009F48804501D10098B4E74FF0000801AB55
:1027E00001221146002000F0F5FBBDF8040000F0C6
:1027F000040010B14FF4006700E00027BDF80400AA
:1028000000F0020000B11DE047F400571AE007F4A1
:102810000060C008019007F48040BDF8041041EA50
:102820005000019001AB00220121022000F0D2FBF8
:102830008346BBF1000F01D1009883E76FF07F4022
:10284000FFF7C6FE8348046824F4B0443C430460A8
:102850000AF4806070B17F48006840F480607D4970
:1028600008607D48846924F080640AF08060044335
:1028700079488461774840680499084375494860FD
:102880007648007800F00100A8B174484568084611
:1028900004682E4672480440C0430640344308464C
:1028A00004606D4884692E4624F0C00406F4407626
:1028B00044EA960484616948007800F0020040B15F
:1028C0006648866864480468664804403443624841
:1028D00004606248007800F0040040B15F48C668B8
:1028E0005D4804686048044034435B4804605B48CA
:1028F000007800F0080048B1584806695648046856
:102900004CF2020084433443534804605348007837
:1029100000F0100040B1514846694F48846953485F
:10292000044034434C4884614C48007800F0200057
:1029300098B14A488569484884692E464C48044005
:10294000C043064034434448846104682E4624F062
:10295000800406F08006344304604048007800F0AC
:10296000400038B13D48C5693A48C4696FF3100466
:102970002C43C4613948007800F08000C0B137486A
:10298000056A344884692E464FF6417004408643F8
:102990003443304884613048803004682E4624F047
:1029A000770406F4EE4644EA16242B48C0F880402B
:1029B0002A48008800F4807018B12848406A2549E8
:1029C00088602648008800F4007018B12348806AA7
:1029D0002049C8602148008800F4806048B11F4841
:1029E000C56A1C48446840F2DE7084432C43194891
:1029F00044601A48008800F4006040B11748056B35
:102A0000144804681B4804402C43124804601348CF
:102A1000008800F4805038B11048456B0D480468B8
:102A200024F440042C4304600C48008800F4005057
:102A300038B10A48856B0748046824F460242C43A5
:102A400004600120009000987CE60000FFFF8F00EA
:102A5000FFFF04000080024000900240803E002002
:102A60007FFFFFFDFFFFFEF8FFC001FFE73FDEFD38
:102A7000FBFFFFFE8FDDFEFF00B500F04FFB00F017
:102A8000FDFA00BD30B503460C460021002238484F
:102A90000068006800F0004008B1002030BD002B45
:102AA00034D033480068008800F4004060BB3048F0
:102AB0000068008800F4807030B32D4800680088FA
:102AC00000F4007000B32A4800680068C0F30D42AB
:102AD000121F2848006800F0007030B124480068D8
:102AE000007800F0200000B1121DA24201D90020A0
:102AF000D4E7002105E01E4800688068405C585417
:102B0000491C9142F7D301E00020C7E74FF0004095
:102B1000174D2D6828601848406900F0800020B1EA
:102B20008020154D68610020A860114800688088E9
:102B300000F4804028B10E480068C0680C4D286041
:102B400014E00B480068808800F4004020B10A4877
:102B5000C068074D286009E007480068C0F3840595
:102B60000348006810302844014D2860012095E793
:102B700028000020008002400090024070B503460B
:102B800000222F480068006800F0004008B10020D3
:102B900070BD40F2F450814201D90020F8E74BB1FA
:102BA000002205E0985C264E3668B668B054521C88
:102BB0008A42F7D3224800684160214800680068D3
:102BC00040F040501E4E366830601D480068006876
:102BD00040F000401A4E366830601A48406900F0F4
:102BE00004051848406900F0200405B92CB145EAF5
:102BF0000400144E70610020706011480068006885
:102C000000F4801028B10E480068C0680C4E306097
:102C100014E00B480068006800F4001020B1094877
:102C20000069074E306009E006480068C0F384067A
:102C30000348006810303044014E30600120A7E79F
:102C4000240000200090024010B54FF4406006F0D0
:102C5000A5FC40F6014006F0A1FC40F6024006F05B
:102C60009DFC40F6034006F099FC40F6064006F055
:102C700095FC40F6074006F091FC40F6084006F04F
:102C80008DFC4FF480720021604801F0D1F94FF4BF
:102C90008073002202215D4801F00AFA4FF480732C
:102CA00003220021594801F02AFA41F20E1006F0E1
:102CB00075FC4FF0C061081106F080FB4FF4000076
:102CC00007F04AF8022300221946504801F0F0F9B3
:102CD0000223032200214D4801F011FA04230022AF
:102CE00002214A4801F0E4F9042303220021474865
:102CF00001F005FA802300220221444801F0D8F9AE
:102D0000802303220021414801F0F9F902220B211E
:102D10003E4801F08DF904220B213C4801F088F96E
:102D200080220B21394801F083F94FF4006300221F
:102D30000221374801F0BCF94FF40063032200215F
:102D4000334801F0DCF94FF480530022022130486F
:102D500001F0AEF94FF48053032200212C4801F01A
:102D6000CEF94FF4005300220221294801F0A0F9C6
:102D70004FF4005303220021254801F0C0F94FF41D
:102D800000620B21224801F053F94FF480520B21CD
:102D90001F4801F04DF94FF400520B211C4801F07F
:102DA00047F90223002219461A4801F081F902234B
:102DB00003220021174801F0A2F91023002202216A
:102DC000144801F075F9102303220021114801F085
:102DD00096F92023002202210E4801F069F92023F0
:102DE000032200210B4801F08AF902220B21094835
:102DF00001F01EF910220B21064801F019F92022DA
:102E00000B21044801F014F910BD0000000002403D
:102E100000040240000802400020084908604860A1
:102E20008860C860086148618861C861086248625A
:102E30008862C8620863486388637047E43D002085
:102E400041F21C01B1EB901F0DD10E4A02EB901123
:102E5000096800F01F0301229A401143094B03EB5C
:102E6000901211600CE0074A02EB9011096800F023
:102E70001F0301229A409143024B03EB9012116011
:102E800070470000008002400A794B7942EA032231
:102E9000084B03441A64CA7812068B7842EA03424C
:102EA0004B7842EA03220B781A43024B03445A64DC
:102EB000704700000080024010B5002440F6194021
:102EC00006F06CFB40F61A4006F068FB40F61B402B
:102ED00006F064FBFFF764FB00F0E2F804460CB96F
:102EE00000BFFEE700224FF480614FF49040FFF7EF
:102EF00011FC0149086010BD48000020F8B500260B
:102F00002C48056925F01C05012006F065FA0446E9
:102F10002948844205D32948844202D245F0080555
:102F200026E02648844205D32548844202D245F053
:102F30000C051DE02248844203D32248844200D27B
:102F400016E02048844205D31F48844202D245F04F
:102F500004050DE01C48844202D31C48844202D37D
:102F60001A48844202D145F0100501E03046F8BD10
:102F7000104805614FF4004000906B46002201218B
:102F8000022000F027F808B93046F0E71048FFF7B4
:102F900013FB6B4600220121104600F01BF808B914
:102FA0003046E4E7BDF8000000F4004000B9012617
:102FB0003046DCE700800240002D3101C00E1602D1
:102FC0000087930300E1F50580D1F008001C4E0E48
:102FD000FFFF04002DE9F04104460D4600270020C4
:102FE000DFF884C0DCF810104FF6C37C21EA0C0136
:102FF0004FF4F86C0CEA821C4CEA040C4FF478484D
:1030000008EAC5284CEA080C4CF0010C4CEA010116
:10301000022C05D1B3F800C0DFF84C80C8F814C00A
:10302000DFF844C0CCF8101000BFDFF83CC0DCF87B
:1030300010C00CF001067F1C1EB1DFF830C06745E0
:10304000F3D1DFF824C0DCF810C00CF0010CBCF1A7
:10305000000F00D101202CB9DFF80CC0DCF814C03F
:10306000A3F800C0BDE8F08100800240FFFF04002B
:10307000416821F000414160704700000648006847
:1030800040F00400044908600448806940F00200F0
:1030900002498861704700000080024000900240B1
:1030A00010B5002100200B4B1B6843F00103094CB5
:1030B000236000BF074B1B6803F00102491C12B1DB
:1030C000054B9942F6D1034B1B6803F0010303B98A
:1030D000012010BD00900240FFFF040010B504F075
:1030E000F6FDFFF7B1FDFFF7E7FE0648006808B9F7
:1030F00000BFFEE70448FFF7A3FE03480A38FFF7C6
:103100009FFE10BD4800002010070400026822F452
:103110004002026002680A430260704700B5074837
:10312000006840F008000549086000F00BF804480A
:10313000806940F400500249886100BD008002406F
:103140000090024010B500220020094B9B6943F417
:103150008013074CA36100BF054B9B6903F48011EA
:10316000521C11B1034B9A42F6D301B9012010BD94
:1031700000900240FFFF04002DE9F05F07460E4675
:103180003C4600BF00BF06F05AFC8346002060604A
:10319000267294F8200040F0010084F82000657841
:1031A00000206070584606F072FCA06A20B1002230
:1031B00004212046A36A9847A06A20B10022114644
:1031C0002046A36A9847A06A20B100220221204627
:1031D000A36A9847304603F0A5F8824604F1100030
:1031E00030B1206920B1514604F1100006F0ADFC69
:1031F00004F1140030B1606920B1514604F11400AB
:1032000006F0A3FC012D03D0042D01D0032D27D1FE
:1032100094F82000C0F3800900BF00BF94F820009C
:1032200000F0FB0084F8200000BF00BFB9F1000FE0
:1032300015D100BF00BF042D03D10020616A0871C1
:1032400001E0606A0671606A006800F10C0800BF66
:1032500000BF00206062404606F0C0FC00BF01E0F5
:1032600000BF00BFBDE8F09F0146002902DC4842D4
:10327000112801DB0520704702484A4250F822001D
:10328000F9E700002C0201082DE9FE4F05468846AB
:1032900016464FF00A09CA460A270024BB460020FA
:1032A00002900190009000BF68E004EB44005A4A8D
:1032B00002EBC000017D0A2F04D119B900BF00BF85
:1032C000274659E0002957D000BF00BFB5B104EB35
:1032D0004402514B03EBC2022868526890420DD160
:1032E0003EB104EB44001A4602EBC0008068B042D5
:1032F00004D100BF00BF2046BDE8FE8F012928D1C0
:1033000004EB4400444A52F8300080B104EB44001E
:1033100002EBC000428A029882422DDBA34604EBF6
:1033200044003D4A02EBC000408A029024E004EBD6
:103330004400394A02EBC000428A019882421BDBFA
:10334000A14604EB4400344A02EBC000408A0190DD
:1033500012E0022910DB04EB44002F4A02EBC0000C
:10336000428A0098824207DBA24604EB44002A4AC4
:1033700002EBC000408A0090601C04B20A2C94DB6F
:1033800008F0020020B90A2F07D108F0010020B987
:1033900000BF00BF4FF0FF30AEE70A2F02DA3C4615
:1033A00000BF1DE0BAF10A0F04DA544600BF00BFA7
:1033B00000BF10E0B9F10A0F02DA4C4600BF0AE084
:1033C000BBF10A0F02DA5C4600BF04E000BF00BF99
:1033D0004FF0FF3090E700BF00BF204600F01EF81E
:1033E00000BF00BF00BF00BF35B104EB44010A4A73
:1033F00002EBC10128684860002004EB4401064A42
:1034000002EBC101488204EB4400114601EBC0000D
:103410008660204670E700006892002010B50446E0
:1034200004EB4400194951F8300070B100BF00BFEF
:1034300004EB4401154A52F8310004F0D8FE002094
:1034400004EB4401114A42F83100002004EB44012E
:103450000E4A02EBC101087504EB440102EBC10105
:10346000488204EB440102EBC101886004EB440193
:1034700002EBC101486004EB4400114601EBC000BF
:1034800003490A68C2608988018210BD68920020E1
:10349000FE030108F0B587B007460D4600BF0DB921
:1034A00007B0F0BD00BF7C682088B0F5807F08D1F0
:1034B0002079062805D16079042802D1608808287F
:1034C00005D000BF00BF384604F091FEE8E7D4F80D
:1034D0000E000690A0690590686808B9002607E00C
:1034E00005986968884201D1012000E00020064665
:1034F0000EB1012000E00220034604F1080206A9F3
:10350000284600F0E1FAE088B0F5807F03D0B0F5FE
:10351000007F22D11AE000BF00BF86B1022206ABB5
:1035200004F10800291DCDE90232CDE9001005F1B2
:103530002A0302462631284600F0DEF905E06868D5
:1035400008B900BF01E000BF00BF09E000BF00BF35
:1035500006A92846FDF710FC02E000BF00BF00BF2F
:1035600000BF384604F043FE00BF99E72DE9FE4353
:10357000044689461546A84600BF00BF00BF00BFED
:1035800000BF00BF2146286801F05FF808B1494F2D
:1035900085E0287800F0F000E02815D101208DF8B2
:1035A000040000208DF805005E208DF80600687884
:1035B00000F07F008DF80700A8788DF80800E87803
:1035C0008DF8090001AF69E02868A1680840D4E9D6
:1035D0000112114088420ED0288880B24FF6A961AE
:1035E000884208D0E06810B104F10C0803E06FF0E5
:1035F0000300BDE8FE833048007800EB40002F490F
:1036000001EBC000007D02281BDB2B48007800EB9B
:10361000400001EBC0008068A04212D12649097821
:1036200001EB4101254A02EBC101D8F800004968CD
:10363000884206D1204802784946204600F040F8EA
:10364000D7E7002622E006EB46001C4901EBC0004C
:10365000007D022818DB06EB460001EBC000806805
:10366000A04211D106EB4601144A02EBC101D8F881
:1036700000004968884207D10F4806703246494623
:10368000204600F01DF8B4E7701CC6B20A2EDADB43
:103690004A464146204600F06FF8AAE700BF4FF4C3
:1036A00000603B4604F12A0249460090204600F0A3
:1036B000DDFA9EE7F8030108F4000020689200207C
:1036C000F8B505460E46144600BF00BF04EB4400A3
:1036D000284901EBC000007D022839D104EB4400E9
:1036E00001EBC000408AB0F58E7F11DD04EB440091
:1036F0000A4602EBC000011D284600F04FF938BB16
:10370000032004EB44011B4A02EBC10108751FE0D2
:1037100004EB4400174901EBC000408AB0F5877FF5
:1037200016DB04EB44000B4603EBC00000F10C0277
:1037300004EB440003EBC000011D284600F03CF9F7
:1037400030B9032004EB44010A4A02EBC1010875B9
:103750004FF40060009004EB4400064901EBC00008
:1037600000F10C0305F12A023146284600F07EFAEA
:10377000F8BD0000689200202DE9FE4F80460E46FD
:10378000154608F12A0A4FF0FF3002900020019000
:103790004146306800F059FF38B9307800F0F00049
:1037A000E02802D00EB1306828B900BF00BF6FF02A
:1037B0000F00BDE8FE8F424601213046FFF764FD51
:1037C0008146B9F1000F07DA00BF00BF0DB100BF9D
:1037D00000BF4FFA89F0ECE700BF00BF09F0FF041B
:1037E00004EB4400424901EBC000007D70B90120A8
:1037F000019004EB44013E4A02EBC101087504EB61
:103800004400114601EBC000C0F8088000BF00BFB3
:10381000019800B93DB93146404600F0BFF802902A
:103820000DB90298C5E700BF00BF04EB4400304962
:1038300001EBC000007D022811DB2E4804704FF41C
:103840000060009004EB440001EBC00000F10C03A9
:1038500052462946404600F009FA029046E004EB41
:103860004400234901EBC000007D01283ED14FF008
:10387000000B2F4609E000BF00BF387B00F040007E
:1038800010B14FF0010B02E03F68002FF3D100BFF1
:10389000BBF1000F07D02A464FF420710E2004F030
:1038A000F0FB074603E02F46384604F07CFDBFB12D
:1038B00004EB44000E4951F8300040B100BF00BF96
:1038C00004EB44010A4A52F8310004F090FC04EB86
:1038D0004400074941F830700020029000BF04E026
:1038E00000BF00BF4FF0FF30029000BF029860E7BA
:1038F00068920020F40000202DE9FC5F81460E460E
:1039000017469846DDE90CAB0020019000BF00BFD0
:103910004FF420721C210E2004F09CFA05462DB9AC
:1039200000BF00BF4FF0FF30BDE8FC9F00BF00BFED
:103930006C6800BF00BF0F9801F0A3FFE08000BFDC
:1039400000BFD8F80000A060B8F80400A081DBF840
:103950000000C4F81200BBF80400E082DAF80000AE
:10396000C4F80E000E980068A0614FF480702080AB
:1039700008206080062020710420607140F6060057
:103980003B46324629460090484600F06FF92846EB
:1039900004F02DFC00250198C6E7000070B5044630
:1039A0000D4600BF00BF034A2946204600F004F838
:1039B00070BD0000F80301087FB504460D461646A9
:1039C0000121074A201D04F12A038DE825000391F7
:1039D000324619462046FFF78FFF04B070BD000045
:1039E000FE03010870B500BF00BF002466E004EBD1
:1039F0004400344901EBC000057D002D5DD004EB8F
:103A0000440001EBC000408A401C04EB44012D4AF5
:103A100002EBC101488204EB4400114601EBC000F7
:103A2000408AB0F5967F0DDA04EB440001EBC0004C
:103A3000007D01280CD104EB440001EBC000408A5A
:103A4000052805DB00BF00BF2046FFF7E7FC34E098
:103A500004EB44001B4901EBC000007D032807D1A3
:103A6000042004EB4401174A02EBC101087524E06D
:103A700004EB4400134901EBC000007D042807D18A
:103A8000022004EB44010F4A02EBC101087514E067
:103A900004EB44000B4901EBC000007D01280CD170
:103AA00004EB44020B4603EBC202111D04EB44027B
:103AB00003EBC2029068FFF771FF641C0A2C96DBCF
:103AC00070BD0000689200202DE9F84306460D46BF
:103AD0001746984600BF00BF00BF00BF5DB1286811
:103AE00048B13146286800F0B0FD20B9287800F0D0
:103AF000F000E02805D100BF00BF6FF00F00BDE867
:103B0000F883324641462846FFF7BEFB0446002CA8
:103B100001DA60B2F3E7022004EB44011C4A02EB35
:103B2000C101087504EB4400114601EBC00086603A
:103B300000BF00BF04EB440001EBC0003968C16066
:103B4000B9880182002004EB440102EBC1014882E4
:103B500004EB4400114651F83000B0B104EB4400CE
:103B600051F83090002004EB440142F831004FF44A
:103B700000603B4606F12A0249460090304600F0BC
:103B800075F8484604F033FB00BF0020B7E700009B
:103B9000689200202DE9F04104460E464FF00E08D1
:103BA00060890E2800DC59E0E07B18B996F83400F3
:103BB000401CE073656800BF00BFAF89287800F043
:103BC0000100B0B12878012809D1687888B9A878AF
:103BD0005E280ED1607B40F01000607309E0062281
:103BE00021492846FCF792FB18B9607B40F0080099
:103BF0006073082F03D0B7F5C16F2AD114E096F88F
:103C0000310000F0080000B928E04146204604F0E9
:103C1000DBFB20B100BF00BF00BF00BF1EE031468C
:103C2000204600F025FE15E096F8310000F008006F
:103C300000B913E04146204604F0C6FB20B100BFA6
:103C400000BF00BF00BF09E031462046FFF722FC5D
:103C500000E003E000BF0020BDE8F081204604F052
:103C6000C6FA0020F8E70000F80301082DE9F04744
:103C700006460D4617469846DDF82090484601F066
:103C800000FE82460E21284604F0A6F800B117E097
:103C90006C68A4F80CA0D8F800002060B8F8040004
:103CA000A0803868C4F80600B888608100BF00BFF3
:103CB00000BF00BF29463046B2699047BDE8F08793
:103CC00000BF00BF6FF00100F8E7000010B5044628
:103CD00000BF00BF472084F8320044213320015543
:103CE000044860610448A061204601F0A9FA002060
:103CF00010BD00006D350008A553000800BF642109
:103D0000104800680BF0DCFD0128F8D100BF05F079
:103D100096FE05460C48006801F012FB0446284652
:103D200005F0B5FE002CEAD0074800680269064895
:103D300001682046904718B1204604F058FADEE7A3
:103D4000E5E70000B0010020AC0100202DE9F84FAC
:103D500005460E46DDB1AF69002F12DA05F06FFEA1
:103D60008146A869002808DA16B9A869401EA8612A
:103D7000484605F08CFEBDE8F88FAF69484605F06F
:103D800086FE384600F03CF904460CB9F3E7F2E74A
:103D90004FF0010805F053FE8146052E24D2DFE8DE
:103DA00006F0030E151C20002089401C00B2208163
:103DB000B4F90800012801DD4FF0000817E0208960
:103DC000401E00B220814FF0000810E0608908B169
:103DD0004FF000080120608109E0002060818046EA
:103DE00005E00120A08102E000BF00BF00BF00BFCE
:103DF000A07B00B3B8F1000F1DD0B4F90800002873
:103E000001DD012000E000208246608908B1012028
:103E100000E000208346A08908B1012000E00020D6
:103E20000090484605F033FE5A4651463846009BFE
:103E300005F084FC02E0484605F029FE00BF9AE741
:103E400070B504460D46E1B205480AF0ABFD00BF6F
:103E5000072103480AF01DFE0028F9D0204670BD56
:103E6000004400402DE9FC4105460C4605F0E7FD05
:103E700007466B4601AA2146284600F01FF8064671
:103E8000384605F004FE26B16A462046019900F046
:103E900002F8BDE8FC8170B506460D461446206860
:103EA00038B11EB1206804F0A2F902E0206803F0E6
:103EB00035F915B1284603F07FFA70BD10B50446F8
:103EC000606818600020606020681060002020603A
:103ED000012010BD10B541F2081005F05FFB4FF452
:103EE0004030FCF707FE012211461948FCF7D8FDC7
:103EF0000323042200211648FCF766FE0122114626
:103F00001348FCF727FE4FF0A06201211048FCF790
:103F10003BFE00210E48FCF74FFE00210C48FCF749
:103F2000FBFD002202210A48FCF7B6FE0848FCF718
:103F3000FEFD0748FCF700FE012211020448FCF7D1
:103F4000ABFE0348FCF7FDFD0148FCF794FD10BDF6
:103F50000020014010B5044640F6034005F01EFB6A
:103F600041F2110005F01AFB20220721234800F03E
:103F70005FF840220721214800F05AF8202301224F
:103F800002211E4800F094F82023022200211B4841
:103F900000F0B5F8402301220221184800F088F80B
:103FA000402302220021154800F0A9F820460AF01B
:103FB000FDFC4FF4E13120460AF080FC0021204650
:103FC0000AF0AAFD002120460AF086FD00212046C5
:103FD0000AF092FD002120460AF074FD00212046DF
:103FE0000AF066FD042120460AF07EFD08212046E5
:103FF0000AF08AFD20460AF047FD10BD000C024081
:1040000070B5044620460AF059F8054665B9002CFB
:1040100001DB042C01DB00BF00BF00BF0920034906
:10402000086000BF002070BD2846FCE7400000206B
:10403000F0B503461C6A5D6A00200DE0012686404B
:1040400016403EB187000F26BE40B443860001FAF9
:1040500006F63443461CB0B20828EFD3082011E01E
:104060000126864016405EB1A0F10806B7000F2673
:10407000BE40B543A0F10806B60001FA06F6354386
:10408000461CB0B21028EBD31C625D62F0BD8162A9
:104090007047816170470AB1816100E081627047B9
:1040A00002461069084008B1012070470020FCE773
:1040B000F0B504460D4616462168E268002019E076
:1040C000012787401F409FB14FEA400C032707FAA2
:1040D0000CF7B943470005FA07F739434FEA400C9C
:1040E000032707FA0CF7BA43470006FA07F73A43E3
:1040F000471CB8B21028E3D32160E260F0BDF0B5F0
:104100000C461546012C03D146681E43466002E06A
:1041100046689E434660826800210DE001268E407D
:104120001E403EB14F000326BE40B2434E0005FA8A
:1041300006F632434E1CB1B21029EFD38260F0BDB7
:104140001CB50020052103464FF4FA72CDE900109A
:1041500002A104480BF0C6FC1CBD000048454C4CB5
:104160004F0000008D4200082DE9F0478146884647
:1041700014460027454600260AE0A85D0D2802D017
:10418000A85D0A2801D1012000E000200746761C26
:10419000A64201DA002FF0D02F48406AA0B95FB9DB
:1041A000202241462C48001DFCF77EF820202A4999
:1041B00008600120486207E0224641462648001D6B
:1041C000FCF772F824480460012F41D1A01E285C3E
:1041D0000D2803D1601E285C0A2828D0601E285CA8
:1041E0000D2803D0601E285C0A2808D1601C2028F6
:1041F00005DC19480068401C174908600BE0A01C4A
:10420000202805DC14480068801C1349086002E07F
:104210002020114908600D220F480068801E0E49B9
:10422000091D0A540A22081F0068401E0A54002370
:104230002E220AA1484602F0D3FA07480023011DA6
:104240000268484602F0CCFA002003494862086040
:104250000020BDE8F0870000583E00200A0D4769A5
:104260006761446576696365E9949FE696A4E68B89
:10427000B738303030E9949FE696A4E68BB7504FBC
:1042800052542048656C6C6F2000000096B04FF0CF
:10429000FF373D464FF4FA5802208DF8450040465E
:1042A00001F0EFFAADF84600002001F0EAFA1290B2
:1042B00000202B490860486251E0002201210220C1
:1042C00002F0ACFB0746002F00DA48E0102211A9EB
:1042D000384601F09DF90646002E05DA384601F011
:1042E000F5F94FF0FF373AE00121384601F0E4FAE2
:1042F0000646002E03DA384601F0E8F92FE01020D8
:10430000159015AA0DA9384601F0A8F80546B5F193
:10431000FF3F05D00023B4221249284602F060FA7C
:1043200013E0002320226946284602F069F804467B
:10433000002C05DC284601F0C9F94FF0FF3507E0F5
:10434000224669462846FFF70FFFB5F1FF3FE8D147
:1043500000BF384601F0BAF94FF0FF3700BFACE7B5
:10436000583E00200404010870B505460C4622465C
:104370000321284600F0EEF870BD00002DE9F04F53
:1043800085B004468A467248806803900398007896
:104390000007860E142E02DA00BF00BFCFE060894E
:1043A000042802D200BF00BFC9E0606805786068D9
:1043B0004078049015B1082D72D100E0BAE0DFF822
:1043C000909109F114096248007D00F0F000E028A6
:1043D00002D100BF00BFB6E05D4A1168506900F02D
:1043E00034F910B100BF00BFADE000BF00BF2089AD
:1043F000082802D200BF00BFA1E0204600F0FAF872
:1044000038B100BF00BF204603F0F1FE05B0BDE8A3
:10441000F08F06F10E01204603F0DEFC78B3208910
:1044200030441FFA80FB2089584502DD00BF00BFE1
:1044300089E04FF4207259460E2003F00BFD074629
:1044400017B900BF00BF7EE0798906F108008142FC
:1044500005D200BF00BF384603F0C9FE73E0324604
:1044600078680399FBF720FF3146384603F0ACFF2C
:1044700030B100BF00BF384603F0B9FE63E010E082
:104480002146384603F015FE28B100BF00BF38466C
:1044900003F0ADFE57E0204603F0A9FE3C4609E0DC
:1044A00034E006F10E01204603F08EFF10B100BF8C
:1044B00000BF48E0D4F804803146204603F08CFC6D
:1044C00008B100BF21E06768D9F80000F860204813
:1044D00000693861002088F80000A8F80200FF2079
:1044E00038720020788101200021FF230A46CDE99F
:1044F000010A00914946204600F0DCFA8346BBF1F0
:10450000000F01D000BF00BF00BF13E0032D0ED08D
:104510000B2D0CD00C2D0AD0042D08D0052D06D063
:104520000D2D04D00E2D02D0112D00D000BF00BFE4
:1045300000BF00BF00BF204603F059FE66E72046DB
:1045400003F055FE62E7204603F051FE00BF5DE731
:10455000589300202DE9FF470746884691464FF4BF
:1045600020722421222003F075FC05461DB900BFEE
:1045700000BFBDE8FF8700BF00BFD7F804A000BFA1
:1045800000BF00BF00BF00BF00BF00BF00BF00BF33
:1045900000BF6C6884F8008084F801900020A0803F
:1045A000E08079686A6802F108001C22FBF77CFE53
:1045B000DAF80C00039003A800F01AFC06465EB17E
:1045C0000020608001200021FF2303AACDE901061D
:1045D0000091284600F06EFA284603F008FE00BF5E
:1045E000C7E770B505460C4622460B212846FFF763
:1045F000B1FF70BDF0B5064600270024354619E02E
:104600006989686802F09CFA0444A0B200EB144483
:10461000688900EBD0714910A0EB410149B10FB995
:10462000012000E000200746E0B2C4F3072141EA80
:1046300000242D68002DE3D127B1E0B2C4F3072197
:1046400041EA0024E04380B2F0BD18B50246009272
:10465000D04300B10AB9012018BD91F8310000F033
:10466000020008B90020F7E74868904201D1002015
:10467000F2E700988B681840D1E901342340984252
:1046800008D1886822EA00008C68E343984201D18F
:104690000120E1E70020DFE72DE9F74F8CB0044669
:1046A0000F464FF00008398DA1F11400C11700EB3F
:1046B0005171C1F3CF0A1420059060680990DDF8AC
:1046C000249099F8000000F00F001421B1EB800F46
:1046D00004D06FF005000FB0BDE8F08F00BF608917
:1046E000142802DA6FF00500F5E700BFB9F80600FC
:1046F00001F0C7F804900498C0F30C0007900498E8
:1047000000F400500390208914381FFA80FBA4E0C5
:104710004FF6FF7000EACA00584501DD584603E035
:104720004FF6FF7000EACA0008904FF4207214217F
:104730000E2003F08FFB054605B994E000BF00BFD3
:10474000142268680999FBF7AFFDD5F80490089822
:104750000A9047E061890598081A80B2029000BF6C
:1047600000BF02990A98884201DA0A9800E002988C
:104770008046B8F1000F03D100200590246831E095
:1047800000F082FB06461EB9284603F030FD6AE0C1
:10479000616805980844334641224146CDE9000846
:1047A000002003F00FFC0B900B9830B9304600F05E
:1047B00070FB284603F01BFD55E0204603F0F3FD97
:1047C00074612A48306128460B9903F028FC0A9846
:1047D000A0EB080080B20A900A9810B10020059062
:1047E000246800BF0A980028B4D10598404480B2DC
:1047F0000590388D1438584501DB012000E0002079
:1048000006900798C0F30C000490069808B103982E
:1048100018B1049840F400500490049801F031F865
:10482000A9F806000899143188B201F02AF8A9F80D
:1048300002000020A9F80A007B69294638460E9A32
:104840009847284603F0D3FC0898ABEB00001FFA0A
:1048500080FB0798504480B20790BBF1000F7FF4B3
:1048600057AF002037E74FF0FF3034E72152000800
:104870002DE9F04706460F464FF0010A7568287883
:104880000421B1EB201F07D000BF00BF304603F06A
:10489000AEFC0020BDE8F087287800074FEA90685A
:1048A000688800F0EEFF81463189494503DD4946BD
:1048B000304603F038FD7089404505DB30894845B6
:1048C00002DBB8F1140F13DAB8F1140F01DA00BFEC
:1048D00000BF7089404501DA00BF00BF30894845FC
:1048E00001DA00BF00BF304603F081FC0020D1E7B1
:1048F00028695F494861E86808610846007D00F062
:10490000F000E0280AD197F8310000F0010018B15A
:10491000786808B13C461CE000241AE0384600F0F4
:10492000ABF808B13C4614E000245148007D7F28D4
:104930000FD05048046809E0BC4200D105E0204691
:1049400000F09AF800B103E000BF2468002CF3D116
:1049500000BF84B9687A11280DD105EB080000BFAB
:1049600000BF4188B1F5884F04D100BF00BF3C466D
:104970004FF0000A00BFBAF1000F15D03C480069A3
:1049800090B13B4908693946FFF75FFE28B93848BE
:10499000007C00F0F000E02806D100BF00BF3046E8
:1049A00003F025FC002075E734B900BF00BF304696
:1049B00003F01DFC00206DE7E8884FF63F710840CA
:1049C00048B100BF00BF304600F002F906460EB9FC
:1049D00000205FE7756800BF00BF00BF00BF24482C
:1049E00004604760856028780007800E2049888130
:1049F0004146304603F0E8FC687A01280DD00628CD
:104A000006D011280ED13946304609F045FC24E085
:104A10003946304605F0F0FF1FE039463046FFF7D3
:104A2000ADFC1AE0124948692146FFF70EFE70B945
:104A30000F48007D00F0F000E02808D00FFA88F160
:104A4000304603F047FC02213046FFF78DFC00BFE3
:104A500000BF304603F0CBFB00BF00BF002004497D
:104A600008604860886088810861486100BF11E77C
:104A7000589300204401002010B5044600BF00BF39
:104A800094F8310000F0010080B1606870B108480E
:104A900040696168884205D0054948692146FFF7A9
:104AA000D4FD18B100BF00BF012010BD0020FCE7FD
:104AB000589300202DE9FE4F07460C4615469846B0
:104AC000DDE90C9A0E9EA34625B10CB1206808B909
:104AD00006F1040B43462A4659463846CDE9009A6A
:104AE000029600F003F8BDE8FE8F00002DE9F84FB4
:104AF00005460F4690469A46DDF828B00C9E00BF4A
:104B000000BFB8F1000F3CD04FF014091421284623
:104B100003F062F928B100BF00BF6FF00100BDE8EB
:104B2000F88F6C6800BF00BF84F808A00B98607213
:104B3000D8F80000206148464FEAE97109EB91710D
:104B4000C1F3870141F04001217084F801B0288948
:104B500000F097FE60800020E0801B48008800F095
:104B600090FEA08018480088401C174908801FB993
:104B700016480068E06001E03868E060002060816D
:104B80000BE06889142804DA00BF00BF6FF0010051
:104B9000C5E76C6820690090E84600BF00BF308D13
:104BA00048B12889318D884205DD42463146284684
:104BB000FFF772FDB3E700BF00BF4246294630460B
:104BC00073699847ABE70000F60000207002010807
:104BD0002DE9F14F84B004984568287800F00F0063
:104BE0001421B1EB800F02D000BF00BFF5E0E888D0
:104BF00000F047FEC0F30C004FF6FF7101EAC00A57
:104C0000688800F03EFE074628780007810E029172
:104C10000299B94200DDE0E00298381A87B20498A0
:104C200003F026FA064670480188881914280CDD1E
:104C30003146284600F092FA20B16B480088304493
:104C4000142802DD00BF00BFC7E06848046813E015
:104C50006069E968884209D1A0692969884205D15B
:104C6000A089A988884201D1012000E0002010B16C
:104C700000BF00BF02E02468002CE9D100BF34B9B6
:104C80003146284600F0EEF9044694B9A5E0E888DC
:104C900000F0F7FDC0F30C0058B9E08900F0F1FD19
:104CA000C0F30C0028B11422294604F10800FBF7D8
:104CB000FBFAE888012121EA50100190019850B1D7
:104CC0000AEB070188B2504503DB4FF6EB718842CF
:104CD00000DD77E000BF2046019A049900F0E2F879
:104CE00083460BF1010000B96CE03F480088304476
:104CF0003D490880019850B10AEB070188B2A083B2
:104D0000A17F41F00101A17700BF00BF00BFBBF14F
:104D1000010F53D1A08B143080B2009060684068BE
:104D2000D0F8009060684568142204F10801284614
:104D3000FBF7BAFA009800F0A4FD68800020E88034
:104D40006881606804900DE0D9F804000390142194
:104D5000484603F039FB4946049803F060F903988C
:104D6000D0F80090B9F1000FEED1204800688442DD
:104D700002D14FF000080EE01C48D0F8008006E099
:104D8000D8F80000A04200D104E0D8F80080B8F1C3
:104D9000000FF5D100BF4146204600F04DF90498C0
:104DA00003F066F9064600BF00BF0F480088801B6D
:104DB0000D490880049805B0BDE8F08F00BF00BF22
:104DC0000020F8E700BF00BF606828B900BF00BF3F
:104DD0000021204600F030F900BF00BF00BF04985A
:104DE00003F005FA0020E6E7FC000020F8000020B0
:104DF00010B502462248016821E091F8310000F028
:104E00000100D8B191F83100C0F38000B0B148681A
:104E1000A0B110688B681840D1E901342340984252
:104E200001D1084610BD91F8310000F0020028B908
:104E30001068CB68984201D10846F3E70968002959
:104E4000DBD110480068A0B10E48006890F831002E
:104E500000F0010068B10B48006890F83100C0F321
:104E6000800030B107480068406810B110787F2892
:104E700003D100BF00BF0020D4E702480068D1E79B
:104E8000440100204801002010B5052002F034F94B
:104E900010BD10B5044600BF00BF2146052002F03A
:104EA000F1F810BD2DE9F74F84B00746884600257C
:104EB00001200190D8F8040002900299488800F07F
:104EC000E0FC8346029800780007800E0390039868
:104ED000584503DD681E07B0BDE8F08F0398ABEBC3
:104EE00000001FFA80FB0299C88800F0CAFCC0F3DA
:104EF0000C004FF6FF7101EAC00A00BF00BFD8F8EE
:104F0000044000202060A4F804A00AEB0B00E0801D
:104F1000E088504502DA4FF0FF30DCE7D7F8049024
:104F20003EE0D9F80460A088B188884220DAC4F84D
:104F300000909DB1A088E988884203DBE088B188B1
:104F4000884202DD4FF0FF30C5E7C5F80080E888F1
:104F5000A18888420BD00020019008E0E088B18849
:104F6000884202DD4FF0FF30B5E7C7F804801AE051
:104F7000A088B188884202D14FF0FF30ABE7A0880B
:104F8000F188884202DA4FF0FF30A4E72DB1E888BB
:104F9000B188884201D000200190D6F800903546B3
:104FA000B9F1000FBDD100BFB9F1000F0FD155B15C
:104FB00000BF00BFC5F80080E888A188884206D0FD
:104FC0000020019003E000BF00BFC7F804800698EE
:104FD00018B9B87F00F0010060B3019820B3786879
:104FE00018B178684068808810B1002001901BE0FB
:104FF0002546D4F800900BE0D9F80440E888A18851
:10500000884202D00020019005E02546D4F80090A7
:10501000B9F1000FF0D100BF019828B100BF00BF67
:1050200000BF00BF00BF00BF019808B1012052E7D8
:10503000002050E700204EE770B504460D460848B2
:105040000068A04203D106492068086003E000BF61
:1050500000BF206828602146042002F013F870BDCC
:10506000F800002070B505460E46042002F044F812
:10507000044674B93146284600F070F8B04203DBAC
:10508000042002F039F804461CB900BF00BF00201C
:1050900070BD20212046FBF72EF90F20E07706484F
:1050A00000682060044804601422294604F10800C6
:1050B000FBF7FAF82046EBE7F80000202DE9F0476F
:1050C00004468946002600BF00BFB9F1000F01D099
:1050D00000BF00BF6068D0F80480B8F80400C0B911
:1050E0006568D8F800006060142204F1080168685F
:1050F000FBF7DAF801212846FFF773FA284602F099
:10510000B7FF074600BF00BFF01986B2284603F07C
:105110006EF8656810E0D5F80480AA46D8F800500B
:10512000504602F0A5FF074600BF00BFF01986B247
:10513000504603F05CF800BF002DECD149462046F4
:10514000FFF77AFF00BF00BF03480088801B0249B9
:1051500008803046BDE8F087FC0000202DE9F84FBC
:1051600005468946002700BF0026B2460020009071
:1051700083461B48046821E06069E968884207D1DA
:10518000A0692969884203D1A089A988884201D0F1
:10519000012000E0002068B10BF1010B1EB926468A
:1051A000CDF800A006E0E07FF17F884202DC2646D1
:1051B000CDF800A0206800B1A2462468002CDBD105
:1051C0002EB130460099FFF779FF804647444F459E
:1051D00002DABBF1010FC7DC3846BDE8F88F0000EA
:1051E000F800002070B500260C48046813E0E07F4A
:1051F000002807DDE07F401EE07700BF00BF2646A5
:10520000246808E000BF00BF2546246831462846D0
:10521000FFF754FF00BF002CE9D170BDF80000205B
:1052200070B505462C4600BF00BF00BF00BF6069D7
:1052300010B1606902F0DBFF2046FFF72AFE70BD67
:105240007CB50446062084F83000022084F82A0049
:105250000A212B2001550D212C2001550E212D2036
:1052600001550F212E20015506212F20015540F216
:10527000DC5020850E2084F8310027480460274840
:105280000068B8B900BF0322002101200AF0D6F857
:10529000224908600846006830B100231A461946C2
:1052A0001E4800680AF06CF900BF00211B48006826
:1052B0000AF006FB04F12A010020FDF7E5FD4FF49A
:1052C000E000FDF7C3F94FF46020FDF7BFF90026B9
:1052D00005E0134901EB0610FDF7CAFE761C052E0A
:1052E000F7D3002507E00F4901EB05104FF440010B
:1052F000FDF70CFF6D1C052DF5D300201F21034683
:105300004FF4AF72CDE9001007A10C480AF0EAFB98
:10531000FDF7B2FB7CBD0000AC010020B001002015
:10532000BC0100200C02002045544845524E455413
:1053300049465F494E50555400000000FD3C0008AE
:105340002DE9F04781460025002602211448006817
:10535000FDF74AF987B2052111480068FDF744F9C5
:105360008046002F06DD4FF4C1723946002002F05E
:1053700071FD054665B12C4608E0628908EB06011F
:105380006068FAF791FF608906442468002CF4D124
:1053900000210846FDF776FB2846BDE8F0870000AF
:1053A000280000202DE9F04782460F460026B0462F
:1053B0002848006890B900BF0322002101200AF0AC
:1053C0003DF8244908600846006830B100231A46B9
:1053D0001946204800680AF0D3F800BFFA211D489A
:1053E00000680AF06DFA60B304F029FB814600BF43
:1053F00019480068006800F000400028F8D1012139
:1054000015480068FDF7F0F805463C4608E062895B
:10541000A8196168FAF748FF6089304486B22468A9
:10542000002CF4D131460020FDF7A8FB8046484609
:1054300004F02DFB00231A461946064800680AF0BE
:105440009FF8B8F1010F02D10020BDE8F08700BF3E
:10545000FEE70000B4010020240000202DE9F74FF2
:1054600088B0884614460020059000BF00BF089809
:10547000FEF7C6FD054625B94FF0FF300BB0BDE87D
:10548000F08F07A9286801F08EFE07465FB300BFC2
:1054900000BF2868007800F0F000102807D000BF97
:1054A0005F2000BF5F21584A116000BF18E007F17C
:1054B0000F0038B900BF162000BF1621524A1160F4
:1054C00000BF0DE000BF3846FDF7CEFE834600BFAB
:1054D000BBF1000F02D04C48C0F800B000BF00BFC5
:1054E0004FF0FF30CAE700BF00BF01210798FBF76C
:1054F00001FC0646701C68B9079801F05DFF00BF0B
:10550000172000BF1721404A116000BF00BF4FF0B5
:10551000FF30B3E700BF00BF30463C4901EB001A43
:1055200004F08DFA049007988069C0F1FF300FFAFB
:1055300080F907988661049804F0A9FA0798806AB0
:1055400050B106E0A9F10109079800221146836ACB
:105550009847B9F1000FF5DCB8F1000F4AD0002CE4
:1055600048D0002305AA06A9079801F0BFFF074607
:10557000CFB100BF00BF079801F01EFF01215046C8
:10558000FEF770FC00BF3846FDF76EFE834600BF95
:10559000BBF1000F02D01C48C0F800B000BF00BF34
:1055A0004FF0FF306AE700BF10208DF800000220A6
:1055B0008DF80100BDF8140000F063F9ADF80200A9
:1055C0000698019000200290039000BF9DF8001003
:1055D0002068884202D99DF8000020606946404654
:1055E0002268FAF761FE00BF00BF00BF00BF00BF26
:1055F00000BF01E000BF00BF00BF002000BF00BF30
:1056000000BF30463AE7000040000020089200202A
:105610002DE9F84F81460C4616464846FEF7F0FC49
:1056200007461FB94FF0FF30BDE8F88F00BF102EBE
:1056300005D16078022802D104F0030088B100BFD0
:105640006FF00F00FDF710FE804600BFB8F1000FAD
:1056500002D01D48C0F8008000BF00BF4FF0FF30EF
:10566000E2E700BF00BF60680090608800F009F9C1
:10567000824600BF00BF00BF00BF00BF00BF00BF29
:1056800052466946386801F041FE054695B100BFB3
:1056900000BF00BF2846FDF7E7FD804600BFB8F118
:1056A000000F02D00848C0F8008000BF00BF4FF0D4
:1056B000FF30B9E700BF00BF00BF002000BF00BF40
:1056C00000BF00BFB0E70000400000202DE9F0411E
:1056D00007464FF0000800BF00BF3846FEF790FCB9
:1056E00004461CB94FF0FF30BDE8F081206850B18E
:1056F0002068007800F0F000102801D1012000E0BF
:105700000020804601E000BF00BF206801F062FF7A
:1057100005466DB100BF2846FDF7A6FD064600BF51
:105720000EB10748066000BF00BF4FF0FF30DBE757
:1057300041462046FEF796FB00BF00BF0020D3E79E
:10574000400000202DE9F84F81460C461746484698
:10575000FEF756FC06461EB94FF0FF30BDE8F88F45
:1057600000BF607830B900BF00BF306801F034FE80
:10577000054632E000BF102F07D1607810B1607885
:10578000022802D104F0030088B100BF6FF00F00BF
:10579000FDF76AFD804600BFB8F1000F02D01D483A
:1057A000C0F8008000BF00BF4FF0FF30D6E700BF59
:1057B00000BF60680090608800F063F8824600BF18
:1057C00000BF00BF00BF00BF00BF00BF5246694618
:1057D000306801F0D3FD054600BF95B100BF00BFA2
:1057E00000BF2846FDF740FD804600BFB8F1000F1E
:1057F00002D00848C0F8008000BF00BF4FF0FF3063
:10580000ACE700BF00BF00BF002000BF00BF00BF6B
:1058100000BFA3E7400000202DE9F04104462546E3
:105820006868804704F0A7F906460D4928680968AA
:105830004718B81BB0F1004F01D3012000E0002051
:1058400030B1296888192246064904F007FA04E0B5
:1058500022460449384604F001FABDE8F081000010
:105860009C010020195800080146080601F47F42F7
:1058700040EA022001F47F0240EA122040EA11606F
:10588000704701460806000C40EA1120704710B529
:10589000002400BF00BF00BF00BF04F027F901F0E3
:1058A00051FA01F003FC02F091F908F0F3FC05F065
:1058B000A1F804F01BFA10BD2DE9F04180460D4619
:1058C00000BF00BF4046FEF79BFB04461CB94FF0EB
:1058D000FF30BDE8F081002D01DD284600E000200A
:1058E000FF2805DA002D01DD284602E0002000E057
:1058F000FF200546E9B2206801F022FE0646EEB11F
:1059000000BF00BF2068007800F0F000102807D02A
:1059100000BF5F2000BF5F210C4A116000BF0AE09A
:1059200000BF3046FDF7A0FC074600BF0FB1074897
:10593000076000BF00BF4FF0FF30CAE700BF002084
:1059400000BF00BF00BF00BFC3E700004000002051
:1059500070B50646344620684068D8B120680078A3
:1059600000F0F000102809D020280FD1A289236868
:10597000A168586808F0C8FB05460AE0A2892368B8
:10598000A168586804F0ACFB054602E06FF005051D
:1059900000BF01E06FF00505257100BF216801F12E
:1059A0000C0004F01BF900BF70BD70B505462C4615
:1059B000206846782068406830B32068007800F09E
:1059C000F000102820D1207A032801D0022E1BD00D
:1059D000032E02D1F520207118E0012E02D1FB2008
:1059E000207113E0207A00F0010010B1206801F06E
:1059F00007FD00BF00BF0420216848702068446292
:105A0000206800F00DF870BDF520207100BF2168FE
:105A100001F10C0004F0E2F800BF00BFF3E7000062
:105A20002DE9F84F04464FF0000B00BF00BF00BF48
:105A300000BF00BF00BF00BF00BF00BF00BF67685E
:105A4000606A90F808A00AF001090AF00208BAF1A9
:105A5000030F01D1012517E0B9F1000F0AD0387DFD
:105A6000052805D0387D062802D0387D082801D1C8
:105A7000012509E0B8F1000F05D0B87E00F0100054
:105A800008B1012500E000251DB10021384604F0D1
:105A900023FB387D012804D10021384604F0A1FA07
:105AA0001BE0B9F1000F07D00021384606F0CCFE0C
:105AB0000021384604F095FAB8F1000F03D0002118
:105AC000384607F0E8F845B100221146384606F09E
:105AD00053F80021384604F098FE25B1384604F00A
