:020000040800F2
:10000000E85700208502000821040008DB030008EF
:100010001D040008D3030008550500080000000077
:10002000000000000000000000000000C501000802
:10003000D703000800000000210200084D0400085A
:100040009F0200089F0200089F0200089F0200080C
:100050009F0200089F0200089F0200089F020008FC
:100060009F0200089F0200089F0200089F020008EC
:100070009F0200089F0200089F0200089F020008DC
:100080009F0200089F0200089F0200089F020008CC
:100090009F0200089F0200089F0200089F020008BC
:1000A0009F0200089F0200089F0200089F020008AC
:1000B0009F0200089F0200089F0200089F0200089C
:1000C0009F0200089F0200089F0200089F0200088C
:1000D0009F0200089F0200089F0200089F0200087C
:1000E0009F0200089F0200089F0200089F0200086C
:1000F0009F0200089F0200089F0200089F0200085C
:100100009F0200089F0200089F0200089F0200084B
:100110009F0200089F0200089F0200089F0200083B
:100120009F0200089F0200089F0200089F0200082B
:100130009F0200089F0200089F0200089F0200081B
:100140009F0200089F0200089F0200089F0200080B
:100150009F0200089F0200089F0200089F020008FB
:100160009F0200089F0200089F0200089F020008EB
:100170009F0200089F0200089F0200080000000084
:100180009F0200089F0200089F0200089F020008CB
:100190009F0200089F0200089F0200080000000064
:1001A0009F0200089F0200089F020008DFF810D09D
:1001B00000F0DEF80048004719110008AFF3008096
:1001C000E85700202C4B19680868B0E8F04F80F31E
:1001D0000988BFF36F8F4FF0000080F311887047DC
:1001E0000000000008480068006880F308884FF0AD
:1001F000000080F3148862B661B6BFF34F8FBFF37F
:100200006F8F00DF00BF00BF08ED00E0DFF80C00DB
:10021000016841F470010160704700BF88ED00E0A3
:10022000EFF30980BFF36F8F134B1A681EF0100FA6
:1002300008BF20ED108A20E9F04F106009B44FF09C
:10024000500080F31188BFF34F8FBFF36F8F02F020
:10025000B3FE4FF0000080F3118809BC19680868EC
:10026000B0E8F04F1EF0100F08BFB0EC108A80F31A
:100270000988BFF36F8F704740000020EFF30580BF
:10028000704700000648804706480047FEE7FEE743
:10029000FEE7FEE7FEE7FEE7FEE7FEE7FEE7FEE736
:1002A00081040008AD01000810B5431A934209D239
:1002B0008318881803E010F8011D03F8011D521E71
:1002C000F9D210BD40EA01039B0703D009E008C939
:1002D000121F08C0042AFAD203E011F8013B00F80B
:1002E000013B521EF9D210BDD2B201E000F8012B41
:1002F000491EFBD270470022F6E710B513460A46A6
:1003000004461946FFF7F0FF204610BD2DE9F05FC7
:100310000546002092469B46884606468146402474
:100320001BE0284641464746224600F042F8534625
:100330005A46C01A914110D311461846224600F081
:1003400029F82D1A67EB01084F46224601200021AB
:1003500000F020F817EB00094E41201EA4F1010423
:10036000DFDC484631462A464346BDE8F09F0000A0
:10037000064C074D06E0E06840F0010394E80700F2
:1003800098471034AC42F6D3FFF714FF403B000807
:10039000603B0008202A04DB203A00FA02F100202A
:1003A00070479140C2F1200320FA03F319439040B3
:1003B0007047202A04DB203A21FA02F0002170471E
:1003C00021FA02F3D040C2F12002914008431946BD
:1003D000704700BFFEE700BFFEE700BFFEE700007A
:1003E0000DE00121064800F04AFE0A2002F084FCDC
:1003F0000121034800F045FE0A2002F07DFCF0E7F1
:100400000008024006E00121034800F03AFE1E20E9
:1004100002F072FCF7E700000008024000BFFEE7B0
:1004200000BFFEE710B5002807DA0A07140E054AD8
:1004300000F00F031B1FD45403E00A07130E024AF7
:10044000135410BD18ED00E000E400E010B500BF4B
:10045000502080F31188BFF34F8FBFF36F8F00BF21
:1004600003F078F818B14FF080500449086000BFDD
:10047000002080F3118800BF10BD000004ED00E0F3
:1004800008B53048006840F470002E4908602E48D6
:10049000006840F001002C49086000BF2A4800684D
:1004A00000F002000028F9D000BF2748083000689B
:1004B00040F080002449083108600020009002E0EC
:1004C0000098401C009000985028F9D31E4808302E
:1004D000006840F090001C4908310860002000903E
:1004E00002E00098401C009000985028F9D300BF0B
:1004F00015480830006820F00300134908310860EF
:1005000011480068114908400F4908600846006812
:1005100020F48020086000200B490831086000BFEB
:1005200009480830006800200028F9D10848064929
:10053000091D0860002004490C31086001F022FF09
:1005400008BD000088ED00E000380240FFFFF6FE25
:100550001030002400BFFEE70FB4054B10B503A90F
:10056000044A029800F018F810BC5DF814FB000073
:10057000F90E00089400002002E008C8121F08C10C
:10058000002AFAD170477047002001E001C1121F14
:10059000002AFBD1704700002DE9FF4F8DB00F46B8
:1005A0000546002606E025280BD0DDE90F1290470E
:1005B0006D1C761C28780028F5D111B03046BDE8B6
:1005C000F08F0024A246A1460122E94900E004433D
:1005D00015F8013F203B02FA03F00842F7D12878D2
:1005E0002A2810D06FF02F022878A0F130010929B5
:1005F00014D80AEB8A0102EB410144F0020400EB3B
:10060000010A6D1CF0E701CF5FEA000A03D544F44C
:100610000054CAF1000A44F002046D1C28782E2808
:1006200017D115F8010F44F004042A280ED06FF0FA
:100630002F022878A0F1300109290AD809EB890195
:1006400002EB410100EB01096D1CF2E757F8049B36
:100650006D1C28786C280FD006DC4C2817D0682831
:100660000DD06A2814D104E0742810D07A280FD154
:100670000DE044F400140AE044F4801401E044F472
:1006800040146978814202D104F580146D1C6D1C00
:1006900028786E281ED00CDC632830D004DC0028BB
:1006A0008BD0582811D19FE0642867D069280CD1DD
:1006B00064E073282DD004DC6F2872D0702804D138
:1006C00094E075286ED078286DD0DDE90F12904740
:1006D000761C4BE1C4F30250022806D0032809D04F
:1006E000042801CF09D0066040E101CFF117C0E92D
:1006F00000613BE101CF068038E1067036E117F872
:10070000040B8DF8000000208DF80100EB4601205D
:1007100003E057F804BB4FF0FF3061074FF00001D2
:1007200002D40DE008F10101884649450FDA804501
:10073000F8DB1BF808100029F4D108E008F10101EA
:1007400088468142FADB1BF808100029F6D1DDE962
:100750000F23AAEB08008146214600F031F930440E
:1007600000EB080604E0DDE90F121BF8010B9047CF
:10077000B8F10108F7D221464846F2E00A21C4F355
:1007800002524FF0000B0891022A04D001CFC1178A
:10079000032A09D00AE0FF1D27F00707F7E8020146
:1007A00008E02CE01EE01FE000B2C117042A01D1CE
:1007B00040B2C117021E71F1000206DA0023D0EB2D
:1007C000030063EB01012D2202E0220504D52B2258
:1007D0008DF82420012203E0E20701D02022F7E770
:1007E000904653E00A210BE0102109E010214FF060
:1007F000000B44F004044FF00809089103E00821BD
:100800004FF0000B0891C4F30252022A04D001CF2A
:100810000021032A06D006E0FF1D27F00707F7E8AE
:10082000020103E080B2042A00D1C0B24FF00008F8
:1008300022072BD52A78702A07D0DDF820C08CF04B
:10084000100C5CEA0B0C05D00EE040228DF8242041
:10085000012208E050EA010306D030238DF824304D
:100860008DF8252002229046089B83F0080353EA66
:100870000B030BD150EA010201D1620706D53022E9
:100880008DF824204FF00108A9F101092A78582A8F
:1008900004D038A20B9208AA0A920BE03AA2F9E718
:1008A0005B46089AFFF732FD0B9B9B5C0A9A521E2F
:1008B0000A92137050EA0102F2D10A98ADEB0000DF
:1008C00000F1200B600702D524F4803401E04FF0E2
:1008D0000109D94502DDA9EB0B0000E0002000EB87
:1008E0000B0141440890AAEB010AE00306D4DDE9BC
:1008F0000F232146504600F063F806444FF00009EC
:1009000008E009A911F80900DDE90F12904709F183
:100910000109761CC145F4DBE0030CD5DDE90F23AA
:100920002146504600F04CF8064404E0DDE90F1281
:1009300030209047761C0899481E08900029F5DC65
:1009400008E00A980A990078491C0A91DDE90F121B
:100950009047761CBBF10001ABF1010BF1DC2146A5
:100960005046DDE90F2300F019F806446D1C21E61E
:100970000928010030313233343536373839616275
:100980006364656600000000303132333435363739
:100990003839414243444546000000002DE9F0410A
:1009A000044600251E461746880404D405E039464F
:1009B0002020B0476D1C641EF9D52846BDE8F081A3
:1009C0002DE9F041044600251E469046C80301D596
:1009D000302700E02027880404D505E0414638464A
:1009E000B0476D1C641EF9D52846BDE8F0818168CA
:1009F00041F00801816000BF816801F00801002911
:100A0000FAD1816841F00401816000BF816801F082
:100A100004010029FAD1704730B5012902D002291A
:100A200020D10FE06AB1102A0BD8C36A23F47003F7
:100A3000C362C36A541E4FF4700505EA045423438D
:100A4000C36210E06AB1042A0BD8836B23F440130D
:100A50008363836B541E4FF4401505EA045423430B
:100A6000836300E000BF00BF30BD00000649096895
:100A700021F4E021054AC2F804131146D1F8041309
:100A80000143C2F8041370470423014000200140D1
:100A900021B1826842F40062826003E0826822F43D
:100AA000006282607047816801F0010119B98168B4
:100AB00041F0010181607047012902D0022912D161
:100AC00008E0836823F040538360836843EA02733D
:100AD000836009E0836823F440138360836843EAFA
:100AE0000253836000E000BF00BF7047F0B51D46B1
:100AF00006290CDA436B01EB81071F26BE40B34386
:100B000001EB810602FA06F63343436322E00C2927
:100B10000EDA036B8E1F06EB86071F26BE40B3431B
:100B20008E1F06EB860602FA06F63343036311E0D6
:100B300010290FDAC36AA1F10C0606EB86071F26FF
:100B4000BE40B343A1F10C0606EB860602FA06F698
:100B50003343C3620A2A0CDA046902EB4207072610
:100B6000BE40B44302EB420605FA06F63443046184
:100B700011E0122A0FDCC468A2F10A0606EB460750
:100B80000726BE40B443A2F10A0606EB460605FA64
:100B900006F63443C460F0BDAAB101F480731BB102
:100BA000436843F48073436001F480631BB143687E
:100BB00043F48063436001F00203CBB1836843F0E8
:100BC0000203836014E001F480731BB1436823F4D3
:100BD0008073436001F480631BB1436823F4806336
:100BE000436001F002031BB1836823F002038360BA
:100BF000704700000649096821F44041054AC2F8DF
:100C000004131146D1F804130143C2F804137047CA
:100C100004230140002001400348006840F40050D4
:100C20000249C1F804037047042301400020014039
:100C30000649096821F01F01054AC2F8041311464C
:100C4000D1F804130143C2F8041370470423014090
:100C50000020014010B501EB4102D30000F1100269
:100C6000D25842F0010301EB4102D40000F110021E
:100C7000135110BD30B5134601EB4104E50000F1FE
:100C80001004625922F0606242EA436201EB4104BF
:100C9000E50000F11004625130BD000000B589B0DC
:100CA0000021124800F028F811480090012001901E
:100CB00010480290002003904FF4805004900020D0
:100CC0000590069002200790000408906A460021D3
:100CD000064800F065F8002211460448FFF7CAFFF5
:100CE00000210248FFF7B6FF09B000BD00640240D2
:100CF000082301400000002010B501EB4102D300A1
:100D000000F11002D25822F0010301EB4102D4009D
:100D100000F110021351002301EB4102D40000F155
:100D20001002135101EB4102D40000F114021351DF
:100D300001EB4102D40000F11802135101EB410212
:100D4000D40000F11C02135101EB4102D40000F168
:100D500020021351212301EB4102D40000F12402AF
:100D6000135104290CDA01EB41025300C1F3400294
:100D700003EB82033D229A4083681A4382600DE0B0
:100D80000A1FD1B201EB41025300C1F3400203EB51
:100D900082033D229A40C3681A43C26010BD00001E
:100DA00070B501EB4104E50000F12404645924F01E
:100DB000040501EB4104E60000F12404A55101EB18
:100DC0004104E60000F118041568A55101EB410447
:100DD000E60000F11C049568A55101EB4104E60012
:100DE00000F11404D569A55101EB4104E50000F1BF
:100DF000100463593F4C2340146944EA8404156A83
:100E00002C4395692C43234301EB4104E50000F199
:100E100010046351546874B901EB4104E50000F11A
:100E20001004645944F4007501EB4104E60000F13C
:100E30001004A5511FE05468012C0ED101EB4104B0
:100E4000E50000F11004645924F4007501EB41043D
:100E5000E60000F11004A5510DE001EB4104E500AE
:100E600000F11004645944F4004501EB4104E6002C
:100E700000F11004A551D46874B901EB4104E500F8
:100E800000F11004645944F4806501EB4104E6006C
:100E900000F11004A5510DE001EB4104E50000F163
:100EA0001004645924F4806501EB4104E60000F16C
:100EB0001004A551546974B901EB4104E50000F137
:100EC0001004645944F4807501EB4104E60000F11C
:100ED0001004A5510DE001EB4104E50000F1100400
:100EE000645924F4807501EB4104E60000F110041C
:100EF000A55170BD3F87FCFF70B504460D46E1B2B9
:100F0000054801F0D5FC00BF0721034801F047FD6B
:100F10000028F9D0204670BD0044004010B50222E0
:100F200001211348FFF778FD062304220021104811
:100F3000FFF7DCFD012211460D48FFF7BDFD002142
:100F40000B48FFF7A5FD0620FFF772FE4FF40040A7
:100F5000FFF750FEFFF760FE012211020448FFF781
:100F60001BFE0348FFF79FFD0148FFF740FD10BD42
:100F70000020014010B5044640F6034001F0FCF8A3
:100F800041F2110001F0F8F820220721234800F077
:100F900047F840220721214800F042F8202301228F
:100FA00002211E4800F06FF82023022200211B4876
:100FB00000F090F8402301220221184800F063F865
:100FC000402302220021154800F084F8204601F059
:100FD00073FC4FF4E131204601F0F6FB002120467E
:100FE00001F020FD0021204601F0FCFC00212046FC
:100FF00001F008FD0021204601F0EAFC0021204616
:1010000001F0DCFC0421204601F0F4FC082120461C
:1010100001F000FD204601F0BDFC10BD000C0240B7
:10102000F0B503461C6A5D6A00200DE0012686408B
:1010300016403EB187000F26BE40B443860001FA39
:1010400006F63443461CB0B20828EFD3082011E05E
:101050000126864016405EB1A0F10806B7000F26B3
:10106000BE40B543A0F10806B60001FA06F63543C6
:10107000461CB0B21028EBD31C625D62F0BD8162E9
:10108000704781617047F0B504460D4616462168E9
:10109000E268002019E0012787401F409FB14FEA16
:1010A000400C032707FA0CF7B943470005FA07F786
:1010B00039434FEA400C032707FA0CF7BA434700BD
:1010C00006FA07F73A43471CB8B21028E3D3216069
:1010D000E260F0BDF0B50C461546012C03D1466820
:1010E0001E43466002E046689E43466082680021D7
:1010F0000DE001268E401E403EB14F000326BE404B
:10110000B2434E0005FA06F632434E1CB1B2102926
:10111000EFD38260F0BD00001CB501F037F940F656
:10112000024001F029F80123002219461748FFF771
:10113000AAFF0123022200211448FFF7CBFF144825
:10114000FFF718FF13A0FFF707FA00F0C1FF102305
:10115000002203211648FFF796FF01F0A2FAFFF7DD
:101160009DFDFFF7DBFE1348016813A0FFF7F4F9BC
:101170001A48012100238022CDE9001018A11B4844
:1011800002F0B6F901F0D2FE00BFFEE7000802400F
:10119000004400400D0A205553415254207072699A
:1011A0006E7466206578616D706C65200D0A0000B4
:1011B0000000024000000020207468652064617413
:1011C00061206164635F76616C75655B305D206989
:1011D000732025303858200D0A0000000800002038
:1011E00073746172745F7461736B0000092200088C
:1011F0002DE9F04705460E46294807682948D0F8EA
:1012000000802948D0F8009028480068001D01F0AF
:1012100011FC50B92548006890F82C100120884036
:1012200023490968814322480160681CE0B9DEB1A6
:1012300000BF204948681D49096888601B498268C9
:101240000968CA6019490968091D8268516017490F
:101250000968091D8160174A144909684A611146E5
:101260000968491C116018E07C1910480068446046
:10127000BC4206D20D480168091D484601F004FC35
:101280000BE00A480168091D404601F0FDFB0A48D1
:101290000068844201D208480460BDE8F08700007D
:1012A000540000204400002048000020400000209E
:1012B00058000020A85300207000002010B50446FC
:1012C00001F008FC34480068401C3349086033488A
:1012D000006840B9314804600846006801280DD113
:1012E00000F058FA0AE02E48006838B92B48006828
:1012F000C06AE16A884201D8284804602948006829
:10130000401C2849086008460068A06400BF94F8A3
:101310002C100120884024490968084322490860AC
:1013200000BFE16A01EB8101204A02EB81014868BC
:10133000A0608268E260211D826851608160E16A7C
:1013400001EB8101194A02EB81026261E16A01EB62
:101350008101164A52F82110491CE26A02EB82020E
:10136000124B43F8221000BF00BF01F0DDFB0C4818
:10137000006878B100BF09480068C06AE16A884225
:1013800007D24FF080500A490860BFF34F8FBFF378
:101390006F8F00BF10BD00005000002040000020F3
:1013A0005C0000206C00002058000020D850002075
:1013B00004ED00E010B501F08DFB10480068D0B9D5
:1013C0000F4801F051FB0F4801F04EFB0C480E494D
:1013D00008600C480D49086000221021052001F02A
:1013E000E9FE064908600846006820B108A10348E4
:1013F000006801F02BFC01F097FB10BD8800002075
:10140000BC530020D0530020800000208400002026
:10141000546D72510000000010B516E001F05AFB47
:101420000C48C068C468201D01F004FB0A4800682D
:10143000401E0949086009480068401E07490860C5
:1014400001F072FB204600F0C0F804480068002854
:10145000E4D110BD94530020500000204C00002027
:1014600070B504460D46206C70B1216CE0680144F3
:10147000E160D4E90210884201D32168E160284686
:10148000226CE168FEF710FF70BD2DE9F0410446C3
:101490000F4615464FF00008A66B206C48B920682F
:1014A00000282CD1A06802F03BF980460020A06003
:1014B00025E07DB93946226C6068FEF7F5FE216CA7
:1014C000606808446060D4E90101884217D320684D
:1014D000606014E03946226CE068FEF7E5FE216C9E
:1014E000E068411AE1602168E068884203D2216C1B
:1014F000A068411AE160022D01D106B1761E701C70
:10150000A0634046BDE8F081F0B587B00126002712
:10151000002408E012A0005D02A9085502A8005DA1
:1015200000B902E0641C142CF4DB00BF002510E0BD
:101530000D4F0E4800EB850000210B468222CDE9BD
:10154000001002A9384601F0D3FF064606B902E0B2
:101550006D1C012DECDB00BF304607B0F0BD000074
:1015600049444C450000000071160008740000203A
:101570002DE9FF5F0746884616469946DDE90EAB22
:10158000B00000F001FC054675B1602000F0FCFBE6
:1015900004462CB160212046FEF7ADFE256304E031
:1015A000284601F0DFFA00E0002454B100204B4649
:1015B00032464146CDE900ABCDE90240384600F065
:1015C00082F8204604B0BDE8F09F10B50446206BB9
:1015D00001F0C8FA204601F0C5FA10BD0146084ADC
:1015E000126812680AB9012200E000220A600A6843
:1015F00022B9034A1268D268106800E000207047E0
:101600008000002030B54FF4A043144800F00704D8
:101610002CB1C01D20F00700104C041B1B1B104CEC
:10162000206000240E4D6C60C218083A22F00702B8
:101630000C4C226000240B4D2D686C60094D2D6808
:101640002C600146541A4C60064C24680C60064D10
:101650004C682C60054D4C682C6030BD9800002013
:101660001800002020000020280000202400002076
:1016700000BFFFF7D1FE064800680128F9D94FF0F6
:10168000805004490860BFF34F8FBFF36F8FF0E7BE
:10169000D850002004ED00E02DE9F04106460D464B
:1016A00017469846069C0DB9246000E02760E66363
:1016B00025640121204601F0B1FD84F8508000200E
:1016C000A064BDE8F0812DE9F05F82460F469046A8
:1016D0009B460A9E0C9C4FEA8801A522206BFEF7D0
:1016E00003FEA8F10100216B01EB800929F0070935
:1016F00009F0070008B9012000E0002050B900BF40
:10170000502080F31188BFF34F8FBFF36F8F00BF5E
:1017100000BFFEE77FB1002507E0795D04F13400EA
:101720004155785D00B902E06D1C142DF5D300BF62
:10173000002147200155202E01D2012000E0002089
:1017400050B900BF502080F31188BFF34F8FBFF313
:101750006F8F00BF00BFFEE7202E00D31F26E6627A
:101760002665201D01F08DF904F1180001F089F9BA
:101770002461C6F12000A06164625A465146484681
:1017800000F0FEFB20600B9808B10B980460BDE8E8
:10179000F09F000010B5002407E004EB84010F4A1D
:1017A00002EB810001F060F9641C202CF5D30C4899
:1017B00001F05AF90B4801F057F90B4801F054F9C0
:1017C0000A4801F051F90A4801F04EF90448094964
:1017D000086004480849086010BD0000D850002087
:1017E000585300206C530020805300209453002055
:1017F000A8530020440000204800002010B50146F6
:10180000224800E0006803688B42FBD31F4B9842DC
:1018100014D01F4B984204D31E4B984201D8012389
:1018200000E0002353B900BF502383F31188BFF3B6
:101830004F8FBFF36F8F00BF00BFFEE702464368C4
:1018400013448B4204D143684C68234443600146EF
:101850000A464B6813440468A34211D10E4C036836
:101860002468A34208D04B680468646823444B6032
:1018700003681B680B6005E0074B1B680B6001E009
:1018800003680B60884200D0016010BD1800002082
:101890009800002097500020200000202DE9F04102
:1018A00004460D4616461F464FF000086560246149
:1018B000B5420CD8F01BA169884202D34FF0010851
:1018C00011E0211D0948006801F0DEF80BE0BE427E
:1018D00004D2BD4202D34FF0010804E0211D0448A8
:1018E000006801F0D1F84046BDE8F0818400002096
:1018F0008000002070B5054601F0ECF8A86B08B92F
:10190000012400E0002401F00FF9204670BDF1B57C
:101910000098846C002654B900BF502080F31188D1
:10192000BFF34F8FBFF36F8F00BF00BFFEE7A06B09
:10193000E16B884201D2012000E0002050B900BFD5
:10194000502080F31188BFF34F8FBFF36F8F00BF1C
:1019500000BFFEE7A06BE16B884233D294F945509B
:10196000002269462046FFF790FD0646681C60B9D4
:10197000606A08B9012000E0002010BB04F12400D7
:1019800001F04AFFE8B101261BE000BF01F066F854
:101990000746BD4214D27F2D01D0012000E0002077
:1019A00050B900BF502080F31188BFF34F8FBFF3B1
:1019B0006F8F00BF00BFFEE7681C40B284F845008F
:1019C00000BF00BF3046F8BD70B505460E460E4854
:1019D0000068C068C468201D01F02CF894F8280045
:1019E00000F0040028B132462946204600F0F2F803
:1019F00005E094F8280000F0FE0084F82800204656
:101A0000216A884770BD00008000002070B586B054
:101A10000020029003900490059094E00298002822
:101A200011DA03AE56B900BF502080F31188BFF31E
:101A30004F8FBFF36F8F00BF00BFFEE7D6E90020D6
:101A4000B168904700BF029800287CDB049C606965
:101A500008B9012000E0002010B9201D00F0EAFFC5
:101A600001A800F0E3F8054602980A2869D2DFE8E9
:101A700000F06805072E365806082F3700BF00BF54
:101A800000BF94F8280040F0010084F82800039873
:101A9000A269811803462A462046FFF7FFFEA8B137
:101AA00094F8280000F0040038B10398A269811866
:101AB0002A46204600F08EF805E094F8280000F051
:101AC000FE0084F828002046216A88473AE000BFDB
:101AD00094F8280000F0FE0084F8280032E000BFEF
:101AE00094F8280040F0010084F828000398A061D1
:101AF000A06908B1012000E0002050B900BF5020CB
:101B000080F31188BFF34F8FBFF36F8F00BF00BF0B
:101B1000FEE7A06941192B462A462046FFF7BEFE84
:101B200010E094F8280000F0020018B9204601F0F7
:101B300019F805E094F8280000F0FE0084F8280069
:101B400000E000BF00BF002202A90448006801F0C5
:101B5000D3FB00287FF462AF06B070BD8800002080
:101B6000F8B505460C4601F01FFA684600F05EF82D
:101B70000646009820BB44B9B54206D801F0E4FE01
:101B800031462846FFF720FF1CE03CB10E480068B4
:101B9000006808B9012000E000200446A91B224685
:101BA0000A48006801F082F801F0CEFE50B94FF00B
:101BB000805007490860BFF34F8FBFF36F8F01E07C
:101BC00001F0C2FEF8BD0000840000208800002063
:101BD00004ED00E070B504460D46164604E0A06929
:101BE00005442046216A8847A06941192B463246A0
:101BF0002046FFF753FE0028F1D170BD0948006868
:101C0000006808B9012000E0002020B14FF0FF304B
:101C10000549086005E003480068C068006802499B
:101C200008607047440000207000002070B5044632
:101C300001F08AFC054607480068854204D200F09E
:101C40000BF80120206001E00020206001480560C1
:101C5000284670BD9000002070B508E00D4800686F
:101C6000C06804684FF0FF312046FFF7ADFE094819
:101C70000068006808B9012000E000200028EDD0CD
:101C80000448056804480068024908600248056085
:101C900070BD000080000020840000200E48006815
:101CA000401C08B9012000E0002050B900BF5020BE
:101CB00080F31188BFF34F8FBFF36F8F00BF00BF5A
:101CC000FEE700BF502080F31188BFF34F8FBFF3B2
:101CD0006F8F00BF00BFFEE73400002008B500BFD3
:101CE0006846FFF77BFC044620460099FFF738FF63
:101CF000FFF78CFEF4E770B5044600F0EBFE94F9B4
:101D0000455019E0A06C30B12046FFF700FE88B1C5
:101D100001F0B6F80EE0606A08B9012000E000208A
:101D200038B904F1240001F077FD18B101F0A8F8EA
:101D300000E003E0681E45B2002DE3DC00BFFF2099
:101D400084F8450000F0F0FE00F0C4FE94F9445021
:101D500010E0206908B9012000E0002048B904F132
:101D6000100001F059FD08B101F08AF8681E45B273
:101D700000E001E0002DECDC00BFFF2084F844000F
:101D800000F0D2FE70BD00002DE9F04705464FF08F
:101D90000008DDB115F1090F01D9012000E0002094
:101DA00098B9083505F0070080B105F00700C0F1CB
:101DB0000809C9F1FF30A84201D2012000E000204B
:101DC00008B94D4402E0002500E0002501F0ECF8E0
:101DD0006448006808B9FFF715FC012000EBE570C6
:101DE000002877D0002DFCD05F480068854271D86C
:101DF0005E4E304604685E48844204D35D488442A7
:101E000001D8012000E0002050B900BF502080F32D
:101E10001188BFF34F8FBFF36F8F00BF00BFFEE786
:101E200016E0264624685248844204D3514884422E
:101E300001D8012000E0002050B900BF502080F3FD
:101E40001188BFF34F8FBFF36F8F00BF00BFFEE756
:101E50006068A84202D220680028E2D141480068A8
:101E6000844267D0306800F108084148804504D3B7
:101E70004048804501D8012000E0002050B900BF53
:101E8000502080F31188BFF34F8FBFF36F8F00BFD7
:101E900000BFFEE7206830606068A84201D20120E0
:101EA00000E0002080F0010050B900BF502080F316
:101EB0001188BFF34F8FBFF36F8F00BF00BFFEE7E6
:101EC0006068401B10281AD9671907F0070010B97D
:101ED000012001E02EE0002050B900BF502080F327
:101EE0001188BFF34F8FBFF36F8F00BF00BFFEE7B6
:101EF0006068401B786065603068386037601A49F8
:101F000060680968081A18490860084600681A4994
:101F10000968884203D2144800681749086060685D
:101F200040F0004060600020206014480068401CC1
:101F30001249086001F008FD08F0070008B9012007
:101F400000E0002050B900BF502080F31188BFF39B
:101F50004F8FBFF36F8F00BF00BFFEE74046BDE865
:101F6000F08700002000002024000020180000203E
:101F70009800002097500020280000202C0000200E
:101F8000001F4FF080730360001F21F00103036006
:101F9000001F054B036014380260001F6FF002033E
:101FA00003602038704700009D1C00082DE9F04FA9
:101FB0008CB0064600200A903EA090E8004CC06815
:101FC000CDE905BECDF810A007900FF2EC0ADAE9D2
:101FD000000ACDE9020A0FF2E00ADAE9000ACDE9C7
:101FE000000A38480068C0F381000B900B9820B1BC
:101FF000012804D0022828D103E0334927E03349DF
:1020000025E03048001F006800F03F072D48001F02
:102010000068C0F3881C2B48001F0068C0F3014013
:10202000401C4FEA40092748001F006800F4800860
:10203000B8F5800F01D1254B00E0234BB3FBF7F03F
:1020400000FB0CF0B0FBF9F101E01F4900BF00BF3D
:102050001C480068C0F3031404A8055D21FA05F2CA
:1020600018480068C0F3822402A8055D22FA05F032
:10207000099014480068C0F342341DF8045022FA55
:1020800005F0089036B1012E06D0022E06D0032EA0
:102090000AD106E00A9108E00A9206E009980A903F
:1020A00003E008980A9000E000BF00BF0A980CB057
:1020B000BDE8F08F000000000000000001020304F2
:1020C00006070809083802400024F40080969800AA
:1020D00010B54FF4406000F04FF840F6164000F0A5
:1020E0004BF84FF4805000F047F84FF0807000F04C
:1020F00079F841F2081000F03FF84FF48030FEF715
:10210000B5FC10BD01461C2930D007DC49B31029AD
:102110000FD0182928D01A2929D126E0B1F5E05F7F
:1021200012D0B1F5E85F1ED0A1F54052103AF2B9D5
:1021300018E0104A1068126822F480320D4B1A60C1
:1021400040F480221A6013E00A4A70321068126864
:1021500022F00102074B70331A6040F004021A604B
:1021600006E000BF00BF00BF00BF00BF00E000BF2F
:1021700000BF704700380240074A02EB9011D1F8C7
:10218000001800F01F0301229A401143024B03EB99
:102190009012C2F80018704700300240074A02EB64
:1021A0009011D1F8001800F01F0301229A409143CA
:1021B000024B03EB9012C2F8001870470030024047
:1021C000074A02EB9011D1F8001800F01F0301221A
:1021D0009A401143024B03EB9012C2F8001870476B
:1021E000003002406FF08071884205D105490968CE
:1021F0000140044A116004E0024909680143014AB0
:10220000116070478C3802401CB5044600F062FC37
:102210000D48032100233222CDE900100BA10E4806
:1022200001F066F90D48042100233222CDE90010A7
:102230000BA10E4801F05CF90D48006800F08AFD22
:1022400000F072FC1CBD00000C0000206C656431C5
:102250005F7461736B000000E10300081000002050
:102260006C6564325F7461736B00000005040008E4
:102270000800002070B5002400251020FFF742FF61
:102280003D48006840F480303B49086000BF641C52
:102290003948006800F400351DB94FF6FF708442DC
:1022A000F5D13548006800F4003030B900BF32483D
:1022B000006800F400300028F9D02F484030006852
:1022C00040F080502C49403108602C48006840F4B0
:1022D00040402A49086028480830006826490831EB
:1022E00008600846006840F400400860084600683E
:1022F00040F4A05008602248091F0860081F0068C9
:1023000040F08070091F086000BF1B48006800F0A3
:1023100000700028F9D01948006840F4803017494F
:10232000086000BF1548406800F480300028F9D0EC
:102330001248006840F400301049086000BF0F48A0
:10234000406800F400300028F9D00B4808300068DD
:1023500020F003000849083108600846006840F092
:102360000200086000BF04480830006800F0080060
:102370000028F8D070BD0000003802400070004016
:102380000A64400910B5FFF775FF10BD10B512487B
:1023900000684FF47A71B0FBF1F4601EB0F1807FF9
:1023A00001D301200FE0601E4FF0E02148610F21B2
:1023B0004FF0FF30FEF736F800204FF0E021886143
:1023C00007200861002008B100BFFEE70021481E79
:1023D000FEF728F810BD00001400002010B531B140
:1023E00001293FD002297DD003297CD1BFE0036AB7
:1023F00023F001030362836923F003038361036A0B
:10240000148823430362036A23F002030362036A0E
:102410009488234303626A4B984202D0694B9842E6
:102420001FD1036A23F004030362036A5488234321
:102430000362036A23F008030362036AD488234318
:102440000362436823F48073436043681489234321
:102450004360436823F40073436043685489234313
:102460004360ABE0036A23F010030362836923F443
:1024700040738361036A148843EA04130362036AA6
:1024800023F020030362036A948843EA041303627F
:102490004B4B984202D04B4B984226D1036A23F013
:1024A00040030362036A548843EA04130362036A25
:1024B00023F080030362036AD48843EA04130362AF
:1024C000436823F4806343604368148943EA8403C8
:1024D0004360436823F4006343604368548943EADC
:1024E000840301E002E068E0436067E0036A23F4EC
:1024F00080730362C36923F00303C361036A148812
:1025000043EA04230362036A23F400730362036A49
:10251000948843EA04230362294B984202D0294B52
:10252000984223D1036A23F480630362036A5488C8
:1025300043EA04230362036A23F400630362036A29
:10254000D48843EA04230362436823F4805343603E
:102550004368148943EA04134360436823F4005337
:1025600043604368548943EA0413436026E0036AE6
:1025700023F480530362C36923F44073C361036A85
:10258000148843EA04330362036A23F400530362AA
:10259000036A948843EA04330362094B984202D0E9
:1025A000084B984208D1436823F480434360436852
:1025B000148943EA8413436000E000BF00BF10BDEC
:1025C000000001400004014031B101290CD0022972
:1025D00013D0032922D118E0836923F070038361AB
:1025E0008369134383611AE0836923F4E0438361C1
:1025F000836943EA0223836111E0C36923F0700316
:10260000C361C3691343C36109E0C36923F4E043B1
:10261000C361C36943EA0223C36100E000BF00BF96
:10262000704731B1012906D0022906D0032908D10B
:1026300005E0426306E0826304E0C26302E00264F4
:1026400000E000BF00BF704731B101290CD0022962
:1026500013D0032922D118E0836923F00803836192
:102660008369134383611AE0836923F40063836100
:10267000836943EA0223836111E0C36923F00803FD
:10268000C361C3691343C36109E0C36923F40063F1
:10269000C361C36943EA0223C36100E000BF00BF16
:1026A000704700B587B044F61F60ADF80000002009
:1026B000ADF80200ADF8040042F20F700290002065
:1026C000ADF806008DF80C0069464FF0804000F030
:1026D0002FF80020ADF81400ADF81600ADF8120088
:1026E0000120ADF810000020ADF81800ADF81A0078
:1026F00004AA01218807FFF771FE40F69F720121AD
:102700008807FFF78EFF602201218807FFF75CFF33
:10271000002201218807FFF797FF4FF0804000F06B
:1027200002F807B000BD016841F001010160704787
:102730000A8882621D4A90420ED0B0F1804F0BD0C1
:102740001B4A904208D01B4A904205D01A4A904238
:1027500002D01A4A90420BD1026822F07002026045
:1027600002684B881A43026002688B881A43026031
:102770008A68C262124A90420AD0124A904207D036
:10278000026822F4407202600268CB881A43026039
:10279000064A904202D0094A904201D10A7B026364
:1027A000426942F0010242617047000000000140AE
:1027B0000004004000080040000C004000040140FC
:1027C00000100040001400402DE9F04704460D467B
:1027D0000027B846B94600263349601A8C4235D0E6
:1027E0000CDC32482044E8B1B0F5806F1FD0B0F562
:1027F000006F21D0B0F5406F32D122E0B0F5806F8C
:1028000029D0B0F5184F03D0B0F51C4F28D104E003
:102810000320FFF7CBFB074623E00320FFF7C6FBAF
:1028200007461EE00220FFF7C1FB074619E0022021
:10283000FFF7BCFB074614E00220FFF7B7FB074693
:102840000FE00220FFF7B2FB07460AE00220FFF785
:10285000ADFB074605E00220FFF7A8FB074600E0B6
:1028600000BF00BFE06800F4004070B1780000EBEA
:102870005500B0FBF5F64FF6F07006EA0008C6F317
:10288000420948EA0900A0600CE007EB5500B0FBE4
:10289000F5F64FF6F07006EA000806F00F0948EA70
:1028A0000900A060BDE8F0870078004000BCFFBFD1
:1028B000C1F308024260704710B504463349601AFC
:1028C0008C424DD00CDC32482044E0B1B0F5806F32
:1028D00022D0B0F5006F31D0B0F5406F52D136E064
:1028E000B0F5806F45D0B0F5184F03D0B0F51C4F50
:1028F00048D11AE040F60410FFF762FC40F60410DD
:10290000FFF74CFC3FE040F61100FFF759FC40F6A2
:102910001100FFF743FC36E040F61200FFF750FCD1
:1029200040F61200FFF73AFC2DE040F60510FFF7E5
:1029300047FC40F60510FFF731FC24E040F6130099
:10294000FFF73EFC40F61300FFF728FC1BE040F6C3
:102950001400FFF735FC40F61400FFF71FFC12E0EF
:1029600040F61E00FFF72CFC40F61E00FFF716FC99
:1029700009E040F61F00FFF723FC40F61F00FFF7B9
:102980000DFC00E000BF00BF10BD0000007800405B
:1029900000BCFFBFC16841F40051C160704710B571
:1029A000024602EB9110006801F01F040123A340CE
:1029B000184008B1012010BD0020FCE7426922F454
:1029C00000724261426901F400731A434261704728
:1029D000426922F480724261426901F480731A43B1
:1029E00042617047C26822F4C062C260C2680A4392
:1029F000C26070470A460021C16821F004011143FA
:102A0000C1607047026922F44052026102690A43C0
:102A1000026170470A460021C16821F00801114394
:102A2000C1607047C26822F48052C260C2680A4323
:102A3000C260704701460A69D1E901309860D1E966
:102A4000010358605068884201D1886850600020B6
:102A500008611068401E10601068704701480068E7
:102A6000704700005000002000F1080141604FF065
:102A7000FF31816000F10801C16001610021016046
:102A8000704700210161704710B502460B685C1C5D
:102A90000CB9106907E002F1080000E040684468E2
:102AA00024689C42FAD944684C604C68A1608860F4
:102AB00041600A611468641C146010BD42684A6079
:102AC00093688B60936859609160086103685B1C30
:102AD0000360704700BF502080F31188BFF34F8F11
:102AE000BFF36F8F00BF0E480068401C0C490860A0
:102AF00008460068012812D10A480068C0B208B927
:102B0000012000E0002050B900BF502080F3118860
:102B1000BFF34F8FBFF36F8F00BF00BFFEE770475B
:102B20003400002004ED00E00D48006850B900BFFB
:102B3000502080F31188BFF34F8FBFF36F8F00BF1A
:102B400000BFFEE706480068401E054908600846C9
:102B5000006820B9002080F3118800BF00BF7047D3
:102B60003400002070B506463546002E50D0083D92
:102B70002C462848844204D32748844201D80120A7
:102B800000E0002050B900BF502080F31188BFF34F
:102B90004F8FBFF36F8F00BF00BFFEE76068C00FAD
:102BA00050B900BF502080F31188BFF34F8FBFF39F
:102BB0006F8F00BF00BFFEE7206808B9012000E06A
:102BC000002050B900BF502080F31188BFF34F8F11
:102BD000BFF36F8F00BF00BFFEE76068C00FB8B1E2
:102BE0002068A8B9606820F00040606000F0DCF95F
:102BF0000A49606809680844084908602046FEF7E9
:102C0000FDFD07480068401C0549086000F09CFE77
:102C100070BD000098000020975000202400002084
:102C20003000002000204FF0E02108618861064854
:102C300000684FF47A71B0FBF1F0401E4FF0E021D4
:102C400048610720086170471400002030B5024633
:102C50000B46002152B900BF502484F31188BFF302
:102C60004F8FBFF36F8F00BF00BFFEE7BBB10020E7
:102C700012E00D4C04EBC0046468944203D10A4C8A
:102C800004EBC0010AE031B9074C54F8304014B9E4
:102C9000054C04EBC001401C0828EAD300BF09B171
:102CA0000B604A6030BD0000985000202DE9F041D3
:102CB00005460E4617462C46FFF70CFF94F94400D4
:102CC000401C10B9002084F8440094F94500401CD1
:102CD00010B9002084F84500FFF726FFA06B28B943
:102CE0003A46314604F1240000F0ECF82046FFF7A4
:102CF00002F8BDE8F081000070B504460025D4B1AB
:102D000000F052F911480068012800D100E00020CD
:102D100050B900BF502080F31188BFF34F8FBFF32D
:102D20006F8F00BF00BFFEE700212046FEF760FA6C
:102D300000F00AFE05463DB94FF080500449086096
:102D4000BFF34F8FBFF36F8F70BD00007C0000207A
:102D500004ED00E02DE9F04105460026FFF7BAFE3C
:102D600015B93748006800E028460446201DFFF7E3
:102D700061FE88B900BFE06A00EB8000314951F87C
:102D8000200040B994F82C10012088402E49096891
:102D900081432D48016000BFA06A18B104F11800FA
:102DA000FFF748FE29480068401C2849086024486D
:102DB0000068844201D1012000E000200746244839
:102DC000006858B157B1211D2248FFF777FE22480D
:102DD0000068401C20490860012606E01F48006882
:102DE000401E1E490860FEF709FFFFF79DFE012EF9
:102DF00002D02046FEF7E9FB15480068E8B110480C
:102E00000068844219D11648006808B9012000E022
:102E1000002050B900BF502080F31188BFF34F8FBE
:102E2000BFF36F8F00BF00BFFEE74FF080500D492A
:102E30000860BFF34F8FBFF36F8FBDE8F0810000D4
:102E400040000020D8500020580000206C000020D6
:102E50005C000020945300204C0000205000002013
:102E60007C00002004ED00E003490968016003498B
:102E7000096841607047000068000020540000208D
:102E800001200149086070476400002070B50446C5
:102E90000D4654B900BF502080F31188BFF34F8F07
:102EA000BFF36F8F00BF00BFFEE705480168183110
:102EB0002046FFF7E9FD01212846FEF799F970BD8C
:102EC0004000002070B504460E46154654B900BFB8
:102ED000502080F31188BFF34F8FBFF36F8F00BF77
:102EE00000BFFEE700BF60680F490968C8610E496E
:102EF000826809680A620C49096818318268516061
:102F00000949096818318160074909688C6221689C
:102F1000491C216000BF0DB14FF0FF3629463046F5
:102F2000FEF766F970BD00004000002010B5FEF706
:102F3000EBFA0446012C02D100F0D6FD0446012C28
:102F400015D100BF502080F31188BFF34F8FBFF31E
:102F50006F8F00BF4FF0FF300F49086001200F490D
:102F6000086000200E49086000F070F810E0601C56
:102F700008B1012000E0002050B900BF502080F3CC
:102F80001188BFF34F8FBFF36F8F00BF00BFFEE705
:102F90000448006810BD0000700000205C000020A4
:102FA000540000207800002002480068401C0149BD
:102FB000086070477C0000201F48006818B101209D
:102FC0001E49086036E000201C49086000BF1C480C
:102FD0000068B0FA80F0C0F11F0101EB8100194ACE
:102FE00052F8200008B1012000E0002050B900BFD5
:102FF000502080F31188BFF34F8FBFF36F8F00BF56
:1030000000BFFEE700BF01EB81020E4B03EB820025
:1030100042685268426000F108024368934201D15D
:10302000C26842604268D268074B1A6000BF00BFA6
:1030300018460068704700007C00002064000020F3
:1030400058000020D8500020400000200EB5524803
:1030500000685249884201D0012000E0002050B9A8
:1030600000BF502080F31188BFF34F8FBFF36F8FE5
:1030700000BF00BFFEE7484800684849491E884233
:1030800001D0012000E0002050B900BF502080F3A3
:103090001188BFF34F8FBFF36F8F00BF00BFFEE7F4
:1030A000002001903E49084600780290FF200A4621
:1030B00010700846007800909DF8000000F0500065
:1030C000384A10701046007850B900BF502080F385
:1030D0001188BFF34F8FBFF36F8F00BF00BFFEE7B4
:1030E0009DF800205020904308B9012000E0002006
:1030F00050B900BF502080F31188BFF34F8FBFF34A
:103100006F8F00BF00BFFEE707E00198401C0190F1
:103110009DF800004006000E00909DF8000000F0B1
:1031200080008028F1D00198082803D100201E4A91
:10313000106004E00198C0F107001B4A10601A48B3
:1031400000680002184A10601046008800F4E06031
:1031500010609DF80800124A10700F482030006877
:1031600040F47F000C49203108600846006840F0B8
:103170007F400860FFF756FD00200C490860FDF70E
:1031800045F80B48006840F0404009490860FDF7E9
:1031900029F800200EBD000000ED00E071C20F41D3
:1031A00000E400E0380000203C0000203400002053
:1031B00034EF00E02DE9F84305460E46174600249B
:1031C000E5B1601EB0FBF5F0B04217D305FB06F089
:1031D00010F1550F12D805FB06F808F15400FEF760
:1031E000D3FD0446B4B1A14609F154093B464A4611
:1031F000314628460094FEF74FFA0BE054B900BF61
:10320000502080F31188BFF34F8FBFF36F8F00BF43
:1032100000BFFEE72046BDE8F88300002DE9F0413D
:1032200005460E4601272C4654B900BF502080F3B6
:103230001188BFF34F8FBFF36F8F00BF00BFFEE752
:10324000002C42D0E06B00283FD04FF0FF31E06B04
:10325000B1FBF0F0216C884237D3FFF73BFCD4E997
:103260000F12206801FB0200A0600020A06320680C
:103270006060E06B401E226C216800FB0211E1607F
:10328000FF2084F8440084F845009EB9206908B9FD
:10329000012000E00020A8B904F1100000F0BCFA01
:1032A00080B14FF0805013490860BFF34F8FBFF3D8
:1032B0006F8F07E004F11000FFF7D6FB04F1240044
:1032C000FFF7D2FBFFF730FC00E000270FB1012031
:1032D00000E0002050B900BF502080F31188BFF3F8
:1032E0004F8FBFF36F8F00BF00BFFEE73846BDE8CA
:1032F000F081000004ED00E02DE9F74183B00546C0
:103300000E464FF000082C4654B900BF502080F301
:103310001188BFF34F8FBFF36F8F00BF00BFFEE771
:103320000EB9206C08B9012000E0002050B900BFA0
:10333000502080F31188BFF34F8FBFF36F8F00BF12
:1033400000BFFEE700F0F0F808B9059808B90120C1
:1033500000E0002050B900BF502080F31188BFF377
:103360004F8FBFF36F8F00BF00BFFEE700BFFFF7B7
:10337000B1FBA76BF7B131462046FEF771F8781E16
:10338000A063206908B9012000E0002060B904F1C1
:10339000100000F041FA38B14FF080502F4908601A
:1033A000BFF34F8FBFF36F8FFFF7BEFB012006B057
:1033B000BDE8F081059818B9FFF7B6FB0020F6E7E5
:1033C000B8F1000F04D101A8FFF74EFD4FF001083E
:1033D000FFF7AAFBFFF7E8FDFFF77CFB94F9440039
:1033E000401C10B9002084F8440094F94500401CAA
:1033F00010B9002084F84500FFF796FB05A901A845
:1034000000F02EF8F0B92046FEF774FAA0B104F1EE
:1034100024000599FFF73AFD2046FEF76CFC00F00A
:1034200093FA0028A3D14FF080500C490860BFF3F5
:103430004F8FBFF36F8F9AE72046FEF75CFC00F0DA
:1034400083FA94E72046FEF756FC00F07DFA20460A
:10345000FEF750FA00288AD00020A8E704ED00E02B
:1034600070B505460C4655B900BF502080F3118851
:10347000BFF34F8FBFF36F8F00BF00BFFEE754B99C
:1034800000BF502080F31188BFF34F8FBFF36F8FC1
:1034900000BF00BFFEE7FFF71DFB13480268686826
:1034A000131A2068401C08B9002619E00F49286843
:1034B0000968884206D06868904203D80126002037
:1034C00020600DE02068984207D92068C01A20606B
:1034D0002846FFF7C9FC002602E0002020600126F4
:1034E000FFF722FB304670BD54000020680000202A
:1034F0002DE9FC5F06460F4690469946DDE90CAB88
:103500004B46424639463046CDE900ABFEF730F82F
:10351000054625B12846FDF7D1FE012401E04FF014
:10352000FF342046BDE8FC9F0549096809B9012020
:1035300005E00449096809B9022000E0002070474D
:103540005C0000207C0000200149086870470000F2
:10355000540000202DE9F0414FF000086548006854
:1035600000287DD164480068451C634805601DBB88
:1035700000BF62480068006808B9012000E0002030
:1035800050B900BF502080F31188BFF34F8FBFF3B5
:103590006F8F00BF00BFFEE75848076858480068B3
:1035A000564908605648076056480068401C55490F
:1035B0000860FEF723FB00BF5348006885427ED3B6
:1035C00000BF4E480068006808B9012000E00020F4
:1035D00020B14FF0FF304C4908606FE04748006869
:1035E000C068C4686668B54202D24748066065E0B4
:1035F00000BF6069D4E902128A60D4E902214A60FE
:10360000211D42688A4201D1E16841600022626165
:103610000168491E016000BFA06AA0B100BFA06A96
:10362000D4E907128A60D4E907214A6004F118013D
:1036300042688A4201D1216A41600022A262016887
:10364000491E016000BF00BF94F82C100120884083
:103650002E49096808432D49086000BFE16A00E06F
:103660003FE001EB81012A4A02EB81014868A0603A
:103670008268E260211D826851608160E16A01EB2D
:103680008101234A02EB81026261E16A01EB81015F
:103690001F4A52F82110491CE26A02EB82021C4BBD
:1036A00043F8221000BF00BF1A49E06A0968C96ADE
:1036B000884286D94FF0010883E700E000BF154833
:1036C0000068C06A00EB8000114951F82000012811
:1036D00001D94FF001081048006808B14FF0010807
:1036E00004E00E480068401C0C4908604046BDE8F4
:1036F000F08100007C0000205400002044000020E5
:1037000048000020680000207000002058000020C1
:10371000D8500020400000206400002060000020FD
:1037200070B505462C460026002D6CD03748006841
:10373000844201D1012000E0002050B900BF502098
:1037400080F31188BFF34F8FBFF36F8F00BF00BFAF
:10375000FEE7606D50B900BF502080F31188BFF3C1
:103760004F8FBFF36F8F00BF00BFFEE7606D401E3D
:103770006065216DE06A884245D0606D002842D1C5
:10378000201DFFF757F940B994F82C10012088400C
:103790001F49096881431E480160206DE062E06AAC
:1037A000C0F12000A06100BF94F82C1001208840D7
:1037B0001749096808431649086000BFE16A01EB30
:1037C0008101144A02EB81014868A0608268E260CE
:1037D000211D826851608160E16A01EB81010D4A1F
:1037E00002EB81026261E16A01EB8101094A52F850
:1037F0002110491CE26A02EB8202064B43F82210B8
:1038000000BF00BF0126304670BD00004000002010
:1038100058000020D850002070B50346D868C16811
:1038200051B900BF502080F31188BFF34F8FBFF311
:103830006F8F00BF00BFFEE700BF886AD1E9074570
:10384000A560D1E90754656001F118044568A542F7
:1038500001D10C6A446000258D620468641E046016
:1038600000BF33480068002842D100BF4869D1E951
:103870000245A560D1E9025465600C1D4568A5426A
:1038800001D1CC68446000254D610468641E046069
:1038900000BF00BF91F82C400120A040254C2468B7
:1038A0002043244C206000BFCC6A04EB8404224DEA
:1038B00005EB8404606888608568CD600C1D8568B0
:1038C0006C608460CC6A04EB84041B4D05EB8405BA
:1038D0004D61CC6A04EB8404174D55F82440641CF8
:1038E000CD6A05EB8505144E46F8254000BF11E072
:1038F00000BF124C6068C86185680D6201F1180450
:1039000085686C6084600D4D8D622C462468641C53
:103910002C6000BF0A4CC86A2468E46AA04204D93B
:1039200001220120074C206000E00022104670BDFB
:103930007C00002058000020D85000208053002038
:1039400040000020640000202DE9F0410024002701
:10395000FFF7C0F800255B48006808B1012000E0CF
:10396000002050B900BF502080F31188BFF34F8F63
:10397000BFF36F8F00BF00BFFEE752480068401ED4
:10398000504908600846006800286ED14E4800681B
:1039900000286AD064E04D48C068C46800BFA06ACF
:1039A000D4E907128A60D4E907214A6004F11801BA
:1039B00042688A4201D1216A41600022A262016804
:1039C000491E016000BF00BF6069D4E902128A602D
:1039D000D4E902214A60211D42688A4201D1E1688E
:1039E0004160002262610168491E016000BF00BFA2
:1039F00094F82C100120884035490968084334495F
:103A0000086000BFE16A01EB8101324A02EB8101EB
:103A10004868A0608268E260211D82685160816010
:103A2000E16A01EB81012B4A02EB81026261E16AEA
:103A300001EB8101274A52F82110491CE26A02EB8E
:103A40008202244B43F8221000BF00BF2249E06AE3
:103A50000968C96A884203D90120204941F8250034
:103A60001A48006810B9012001E026E00020002873
:103A700091D00CB1FEF7C2F8194806686EB100BFCC
:103A8000FFF768FD18B10120144941F82500761EA2
:103A9000002EF5D1002012490860104850F825008A
:103AA00058B1012700BF0C48006838070D4908606D
:103AB000BFF34F8FBFF36F8F00BFFFF735F8384666
:103AC000BDE8F0817C0000205000002080530020E1
:103AD00058000020D8500020400000206400002042
:103AE0006000002004ED00E01CB50024FDF762FC3E
:103AF0000E48006858B10E481F2100234FF482720F
:103B0000CDE900100BA10D48FFF7F2FC044654B9B3
:103B100000BF502080F31188BFF34F8FBFF36F8F2A
:103B200000BF00BFFEE720461CBD0000880000204B
:103B30008C000020546D722053766300DD1C000859
:103B4000603B000800000020980000007805000895
:103B5000F83B000898000020505700008805000836
:103B60000000000000000000000000000000000055
:103B70000000000000C2EB0B00000000000000008D
:103B80000000000000000000000000000000000035
:103B900000000000AAAAAAAA00000000000000007D
:103BA0000000000000000000000000000000000015
:103BB0000000000000000000000000000000000005
:103BC00000000000000000000000000000000000F5
:103BD00000000000000000001F00000000000000C6
:103BE00000000000000000000000000000000000D5
:083BF0000000000000000000CD
:04000005080001AD41
:00000001FF
